{
  "contractName": "SupplyChain",
  "abi": [
    {
      "inputs": [
        {
          "internalType": "address",
          "name": "",
          "type": "address"
        }
      ],
      "name": "buyers",
      "outputs": [
        {
          "internalType": "bool",
          "name": "",
          "type": "bool"
        }
      ],
      "stateMutability": "view",
      "type": "function",
      "constant": true
    },
    {
      "inputs": [
        {
          "internalType": "address",
          "name": "",
          "type": "address"
        }
      ],
      "name": "shippingLines",
      "outputs": [
        {
          "internalType": "bool",
          "name": "",
          "type": "bool"
        }
      ],
      "stateMutability": "view",
      "type": "function",
      "constant": true
    },
    {
      "inputs": [
        {
          "internalType": "address",
          "name": "",
          "type": "address"
        }
      ],
      "name": "suppliers",
      "outputs": [
        {
          "internalType": "bool",
          "name": "",
          "type": "bool"
        }
      ],
      "stateMutability": "view",
      "type": "function",
      "constant": true
    },
    {
      "inputs": [
        {
          "internalType": "address",
          "name": "",
          "type": "address"
        }
      ],
      "name": "traders",
      "outputs": [
        {
          "internalType": "bool",
          "name": "",
          "type": "bool"
        }
      ],
      "stateMutability": "view",
      "type": "function",
      "constant": true
    },
    {
      "inputs": [],
      "name": "signUpBuyer",
      "outputs": [],
      "stateMutability": "nonpayable",
      "type": "function"
    },
    {
      "inputs": [],
      "name": "signUpTrader",
      "outputs": [],
      "stateMutability": "nonpayable",
      "type": "function"
    },
    {
      "inputs": [],
      "name": "signUpSupplier",
      "outputs": [],
      "stateMutability": "nonpayable",
      "type": "function"
    },
    {
      "inputs": [],
      "name": "signUpShippingLine",
      "outputs": [],
      "stateMutability": "nonpayable",
      "type": "function"
    },
    {
      "inputs": [
        {
          "internalType": "bytes32",
          "name": "hash",
          "type": "bytes32"
        },
        {
          "internalType": "uint256",
          "name": "amountToTrader",
          "type": "uint256"
        },
        {
          "internalType": "address",
          "name": "trader",
          "type": "address"
        },
        {
          "internalType": "uint256",
          "name": "percentAdvanceForTrader",
          "type": "uint256"
        },
        {
          "internalType": "string",
          "name": "commodity",
          "type": "string"
        },
        {
          "internalType": "uint256",
          "name": "quantity",
          "type": "uint256"
        },
        {
          "internalType": "enum SupplyChain.Unit",
          "name": "unit",
          "type": "uint8"
        }
      ],
      "name": "createOrder",
      "outputs": [],
      "stateMutability": "nonpayable",
      "type": "function"
    },
    {
      "inputs": [
        {
          "internalType": "bytes32",
          "name": "hash",
          "type": "bytes32"
        }
      ],
      "name": "acceptOrderTrader",
      "outputs": [],
      "stateMutability": "nonpayable",
      "type": "function"
    },
    {
      "inputs": [
        {
          "internalType": "bytes32",
          "name": "hash",
          "type": "bytes32"
        },
        {
          "internalType": "address",
          "name": "buyer",
          "type": "address"
        },
        {
          "internalType": "address",
          "name": "trader",
          "type": "address"
        }
      ],
      "name": "rejectOrderBuyerOrTrader",
      "outputs": [],
      "stateMutability": "nonpayable",
      "type": "function"
    },
    {
      "inputs": [
        {
          "internalType": "bytes32",
          "name": "hash",
          "type": "bytes32"
        },
        {
          "internalType": "uint256",
          "name": "amountToTrader",
          "type": "uint256"
        },
        {
          "internalType": "uint256",
          "name": "percentAdvanceForTrader",
          "type": "uint256"
        }
      ],
      "name": "revertOrderBuyerOrTrader",
      "outputs": [],
      "stateMutability": "nonpayable",
      "type": "function"
    },
    {
      "inputs": [
        {
          "internalType": "bytes32",
          "name": "hash",
          "type": "bytes32"
        }
      ],
      "name": "confirmOrderTraderToBuyer",
      "outputs": [],
      "stateMutability": "nonpayable",
      "type": "function"
    },
    {
      "inputs": [
        {
          "internalType": "bytes32",
          "name": "hash",
          "type": "bytes32"
        }
      ],
      "name": "getCommodityAndQuantity",
      "outputs": [
        {
          "internalType": "string",
          "name": "",
          "type": "string"
        },
        {
          "internalType": "uint256",
          "name": "",
          "type": "uint256"
        },
        {
          "internalType": "uint256",
          "name": "",
          "type": "uint256"
        },
        {
          "internalType": "enum SupplyChain.Unit",
          "name": "",
          "type": "uint8"
        }
      ],
      "stateMutability": "view",
      "type": "function",
      "constant": true
    },
    {
      "inputs": [
        {
          "internalType": "address",
          "name": "supplier",
          "type": "address"
        },
        {
          "internalType": "uint256",
          "name": "amountToSupplier",
          "type": "uint256"
        },
        {
          "internalType": "uint256",
          "name": "percentAdvanceForSupplier",
          "type": "uint256"
        },
        {
          "internalType": "bytes32",
          "name": "hash",
          "type": "bytes32"
        }
      ],
      "name": "addSupplierToOrder",
      "outputs": [],
      "stateMutability": "nonpayable",
      "type": "function"
    },
    {
      "inputs": [
        {
          "internalType": "bytes32",
          "name": "hash",
          "type": "bytes32"
        }
      ],
      "name": "acceptOrderSupplier",
      "outputs": [],
      "stateMutability": "nonpayable",
      "type": "function"
    },
    {
      "inputs": [
        {
          "internalType": "bytes32",
          "name": "hash",
          "type": "bytes32"
        },
        {
          "internalType": "address",
          "name": "supplier",
          "type": "address"
        }
      ],
      "name": "rejectOrderSupplierOrTrader",
      "outputs": [],
      "stateMutability": "nonpayable",
      "type": "function"
    },
    {
      "inputs": [
        {
          "internalType": "bytes32",
          "name": "hash",
          "type": "bytes32"
        },
        {
          "internalType": "uint256",
          "name": "amountToSupplier",
          "type": "uint256"
        },
        {
          "internalType": "uint256",
          "name": "percentAdvanceForSupplier",
          "type": "uint256"
        }
      ],
      "name": "revertOrderSupplierOrTrader",
      "outputs": [],
      "stateMutability": "nonpayable",
      "type": "function"
    },
    {
      "inputs": [
        {
          "internalType": "bytes32",
          "name": "hash",
          "type": "bytes32"
        }
      ],
      "name": "confirmOrderSupplierToTrader",
      "outputs": [],
      "stateMutability": "nonpayable",
      "type": "function"
    },
    {
      "inputs": [
        {
          "internalType": "bytes32",
          "name": "hash",
          "type": "bytes32"
        }
      ],
      "name": "getAmountToTrader",
      "outputs": [
        {
          "internalType": "uint256",
          "name": "",
          "type": "uint256"
        }
      ],
      "stateMutability": "view",
      "type": "function",
      "constant": true
    },
    {
      "inputs": [
        {
          "internalType": "bytes32",
          "name": "hash",
          "type": "bytes32"
        }
      ],
      "name": "getAmountToSupplier",
      "outputs": [
        {
          "internalType": "uint256",
          "name": "",
          "type": "uint256"
        }
      ],
      "stateMutability": "view",
      "type": "function",
      "constant": true
    },
    {
      "inputs": [
        {
          "internalType": "bytes32",
          "name": "hash",
          "type": "bytes32"
        }
      ],
      "name": "getAmountToShippingLine",
      "outputs": [
        {
          "internalType": "uint256",
          "name": "",
          "type": "uint256"
        }
      ],
      "stateMutability": "view",
      "type": "function",
      "constant": true
    },
    {
      "inputs": [
        {
          "internalType": "bytes32",
          "name": "hash",
          "type": "bytes32"
        }
      ],
      "name": "getSupplier",
      "outputs": [
        {
          "internalType": "address",
          "name": "",
          "type": "address"
        }
      ],
      "stateMutability": "view",
      "type": "function",
      "constant": true
    },
    {
      "inputs": [
        {
          "internalType": "bytes32",
          "name": "hash",
          "type": "bytes32"
        }
      ],
      "name": "getBuyer",
      "outputs": [
        {
          "internalType": "address",
          "name": "",
          "type": "address"
        }
      ],
      "stateMutability": "view",
      "type": "function",
      "constant": true
    },
    {
      "inputs": [
        {
          "internalType": "bytes32",
          "name": "hash",
          "type": "bytes32"
        }
      ],
      "name": "getTrader",
      "outputs": [
        {
          "internalType": "address",
          "name": "",
          "type": "address"
        }
      ],
      "stateMutability": "view",
      "type": "function",
      "constant": true
    },
    {
      "inputs": [
        {
          "internalType": "bytes32",
          "name": "hash",
          "type": "bytes32"
        }
      ],
      "name": "getShippingLine",
      "outputs": [
        {
          "internalType": "address",
          "name": "",
          "type": "address"
        }
      ],
      "stateMutability": "view",
      "type": "function",
      "constant": true
    },
    {
      "inputs": [
        {
          "internalType": "bytes32",
          "name": "hash",
          "type": "bytes32"
        }
      ],
      "name": "getAdvancePercentForTrader",
      "outputs": [
        {
          "internalType": "uint256",
          "name": "",
          "type": "uint256"
        }
      ],
      "stateMutability": "view",
      "type": "function",
      "constant": true
    },
    {
      "inputs": [
        {
          "internalType": "bytes32",
          "name": "hash",
          "type": "bytes32"
        }
      ],
      "name": "getAdvancePercentForSupplier",
      "outputs": [
        {
          "internalType": "uint256",
          "name": "",
          "type": "uint256"
        }
      ],
      "stateMutability": "view",
      "type": "function",
      "constant": true
    },
    {
      "inputs": [
        {
          "internalType": "bytes32",
          "name": "hash",
          "type": "bytes32"
        },
        {
          "internalType": "bytes32",
          "name": "update",
          "type": "bytes32"
        }
      ],
      "name": "updateStateBySupplier",
      "outputs": [],
      "stateMutability": "nonpayable",
      "type": "function"
    },
    {
      "inputs": [
        {
          "internalType": "bytes32",
          "name": "hash",
          "type": "bytes32"
        },
        {
          "internalType": "bytes32",
          "name": "update",
          "type": "bytes32"
        }
      ],
      "name": "updateStateByBuyer",
      "outputs": [],
      "stateMutability": "nonpayable",
      "type": "function"
    },
    {
      "inputs": [
        {
          "internalType": "bytes32",
          "name": "hash",
          "type": "bytes32"
        },
        {
          "internalType": "bytes32",
          "name": "update",
          "type": "bytes32"
        }
      ],
      "name": "updateStateByTrader",
      "outputs": [],
      "stateMutability": "nonpayable",
      "type": "function"
    },
    {
      "inputs": [
        {
          "internalType": "bytes32",
          "name": "hash",
          "type": "bytes32"
        }
      ],
      "name": "getState",
      "outputs": [
        {
          "internalType": "enum SupplyChain.State",
          "name": "",
          "type": "uint8"
        }
      ],
      "stateMutability": "view",
      "type": "function",
      "constant": true
    },
    {
      "inputs": [
        {
          "internalType": "bytes32",
          "name": "hash",
          "type": "bytes32"
        },
        {
          "internalType": "string",
          "name": "BL",
          "type": "string"
        }
      ],
      "name": "uploadBL",
      "outputs": [],
      "stateMutability": "nonpayable",
      "type": "function"
    },
    {
      "inputs": [
        {
          "internalType": "bytes32",
          "name": "hash",
          "type": "bytes32"
        }
      ],
      "name": "ship",
      "outputs": [],
      "stateMutability": "nonpayable",
      "type": "function"
    },
    {
      "inputs": [
        {
          "internalType": "string",
          "name": "PL",
          "type": "string"
        },
        {
          "internalType": "string",
          "name": "invoice",
          "type": "string"
        },
        {
          "internalType": "uint256",
          "name": "finalQuantity",
          "type": "uint256"
        },
        {
          "internalType": "bytes32",
          "name": "hash",
          "type": "bytes32"
        }
      ],
      "name": "onProductionComplete",
      "outputs": [],
      "stateMutability": "nonpayable",
      "type": "function"
    },
    {
      "inputs": [
        {
          "internalType": "bytes32",
          "name": "hash",
          "type": "bytes32"
        }
      ],
      "name": "getDocumentsFromSupplier",
      "outputs": [
        {
          "internalType": "string",
          "name": "",
          "type": "string"
        },
        {
          "internalType": "string",
          "name": "",
          "type": "string"
        },
        {
          "internalType": "string",
          "name": "",
          "type": "string"
        }
      ],
      "stateMutability": "view",
      "type": "function",
      "constant": true
    },
    {
      "inputs": [
        {
          "internalType": "bytes32",
          "name": "hash",
          "type": "bytes32"
        }
      ],
      "name": "getDocumentsFromShippingLine",
      "outputs": [
        {
          "internalType": "string",
          "name": "",
          "type": "string"
        },
        {
          "internalType": "string",
          "name": "",
          "type": "string"
        },
        {
          "internalType": "string",
          "name": "",
          "type": "string"
        }
      ],
      "stateMutability": "view",
      "type": "function",
      "constant": true
    },
    {
      "inputs": [
        {
          "internalType": "string",
          "name": "invoice",
          "type": "string"
        },
        {
          "internalType": "string",
          "name": "PL",
          "type": "string"
        },
        {
          "internalType": "string",
          "name": "BL",
          "type": "string"
        },
        {
          "internalType": "bytes32",
          "name": "hash",
          "type": "bytes32"
        }
      ],
      "name": "updateDocumentsFromSupplier",
      "outputs": [],
      "stateMutability": "nonpayable",
      "type": "function"
    },
    {
      "inputs": [
        {
          "internalType": "bytes32",
          "name": "hash",
          "type": "bytes32"
        }
      ],
      "name": "getDocumentsFromTrader",
      "outputs": [
        {
          "internalType": "string",
          "name": "",
          "type": "string"
        },
        {
          "internalType": "string",
          "name": "",
          "type": "string"
        },
        {
          "internalType": "string",
          "name": "",
          "type": "string"
        }
      ],
      "stateMutability": "view",
      "type": "function",
      "constant": true
    },
    {
      "inputs": [],
      "name": "getHashesForBuyer",
      "outputs": [
        {
          "internalType": "bytes32[]",
          "name": "",
          "type": "bytes32[]"
        }
      ],
      "stateMutability": "view",
      "type": "function",
      "constant": true
    },
    {
      "inputs": [],
      "name": "getHashesForSupplier",
      "outputs": [
        {
          "internalType": "bytes32[]",
          "name": "",
          "type": "bytes32[]"
        }
      ],
      "stateMutability": "view",
      "type": "function",
      "constant": true
    },
    {
      "inputs": [],
      "name": "getHashesForTrader",
      "outputs": [
        {
          "internalType": "bytes32[]",
          "name": "",
          "type": "bytes32[]"
        }
      ],
      "stateMutability": "view",
      "type": "function",
      "constant": true
    },
    {
      "inputs": [],
      "name": "getHashesForShippingLine",
      "outputs": [
        {
          "internalType": "bytes32[]",
          "name": "",
          "type": "bytes32[]"
        }
      ],
      "stateMutability": "view",
      "type": "function",
      "constant": true
    },
    {
      "inputs": [
        {
          "internalType": "address",
          "name": "shippingLine",
          "type": "address"
        },
        {
          "internalType": "bytes32",
          "name": "hash",
          "type": "bytes32"
        }
      ],
      "name": "addShippingLineToOrder",
      "outputs": [],
      "stateMutability": "nonpayable",
      "type": "function"
    },
    {
      "inputs": [
        {
          "internalType": "bytes32",
          "name": "hash",
          "type": "bytes32"
        }
      ],
      "name": "acceptOrderShippingLine",
      "outputs": [],
      "stateMutability": "nonpayable",
      "type": "function"
    },
    {
      "inputs": [
        {
          "internalType": "bytes32",
          "name": "hash",
          "type": "bytes32"
        },
        {
          "internalType": "uint256",
          "name": "amountToShippingLine",
          "type": "uint256"
        }
      ],
      "name": "addAmountShippingLine",
      "outputs": [],
      "stateMutability": "nonpayable",
      "type": "function"
    },
    {
      "inputs": [
        {
          "internalType": "bytes32",
          "name": "hash",
          "type": "bytes32"
        },
        {
          "internalType": "address",
          "name": "shippingLine",
          "type": "address"
        }
      ],
      "name": "rejectOrderShippingLine",
      "outputs": [],
      "stateMutability": "nonpayable",
      "type": "function"
    },
    {
      "inputs": [
        {
          "internalType": "bytes32",
          "name": "hash",
          "type": "bytes32"
        },
        {
          "internalType": "uint256",
          "name": "amountToShippingLine",
          "type": "uint256"
        }
      ],
      "name": "revertOrderShippingLine",
      "outputs": [],
      "stateMutability": "nonpayable",
      "type": "function"
    },
    {
      "inputs": [
        {
          "internalType": "bytes32",
          "name": "hash",
          "type": "bytes32"
        }
      ],
      "name": "confirmOrderShippingLineToSupplier",
      "outputs": [],
      "stateMutability": "nonpayable",
      "type": "function"
    }
  ],
  "bytecode": "0x608060405234801561001057600080fd5b50612dcb806100206000396000f3fe608060405234801561001057600080fd5b50600436106102b85760003560e01c806397a993aa11610182578063d93a8dc1116100e9578063e6b5e2d3116100a2578063f19aae851161007c578063f19aae851461067d578063f395385014610690578063f49ba3bf146106a3578063f70c0504146106ab57600080fd5b8063e6b5e2d314610644578063e81fbda414610657578063e82cf5111461066a57600080fd5b8063d93a8dc1146105f3578063da1e79da146105fb578063da5c207814610603578063dc24de7014610616578063dcc2c89614610629578063e69cd3ea1461063157600080fd5b8063c2e90de21161013b578063c2e90de214610581578063c4c9cdb514610594578063cb543688146105a7578063cfc05a0d146105ba578063d0f96ee2146105cd578063d13d9837146105e057600080fd5b806397a993aa146104ff5780639aa6935e146105225780639e482e9614610535578063a1c2eb3914610548578063a70506d91461055b578063c078a9bc1461056e57600080fd5b80633f977e781161022657806371892637116101df578063718926371461047b5780638323c89f1461049057806385c5cf70146104a357806387cc5a1c146104b65780638d0a360f146104c957806392a88fa2146104dc57600080fd5b80633f977e78146104145780634b5e7af3146104275780635b72da4a1461043a578063600855b9146104425780636796264e146104555780636b7aa95b1461046857600080fd5b806316dc15fe1161027857806316dc15fe14610350578063174d70b9146103835780631c2604dd1461038b5780632b5676d7146103ad57806334872b69146103d05780633f082933146103f157600080fd5b8061f580146102bd57806298a2b4146102d257806309648a9d1461030257806309fdacf7146103225780630bdd96e31461033557806311933b651461033d575b600080fd5b6102d06102cb366004612899565b6106be565b005b6102e56102e0366004612929565b61074f565b6040516001600160a01b0390911681526020015b60405180910390f35b610315610310366004612929565b610778565b6040516102f99190612958565b6102d0610330366004612929565b61079b565b6102d0610814565b6102d061034b366004612929565b610838565b61037361035e366004612989565b600a6020526000908152604090205460ff1681565b60405190151581526020016102f9565b6102d06108cf565b61039e610399366004612929565b6108f3565b6040516102f9939291906129f8565b6103c06103bb366004612929565b610af1565b6040516102f99493929190612a3b565b6103e36103de366004612929565b610bcb565b6040519081526020016102f9565b6103736103ff366004612989565b600c6020526000908152604090205460ff1681565b6102d0610422366004612a7b565b610beb565b6102d0610435366004612a7b565b610c9f565b6102d0610d84565b6102d0610450366004612a9d565b610da8565b6102d0610463366004612929565b610ea2565b6102d0610476366004612ac9565b610f16565b610483610f98565b6040516102f99190612b3d565b6102e561049e366004612929565b611001565b6102d06104b1366004612b81565b61102a565b6102e56104c4366004612929565b61113c565b61039e6104d7366004612929565b611165565b6103736104ea366004612989565b600b6020526000908152604090205460ff1681565b61037361050d366004612989565b60096020526000908152604090205460ff1681565b6102d0610530366004612b81565b6111a6565b6103e3610543366004612929565b61129f565b6102d0610556366004612a7b565b6112bf565b6102d0610569366004612929565b611321565b6102d061057c366004612929565b611395565b6102d061058f366004612bad565b6113ed565b6103e36105a2366004612929565b6114c3565b6102d06105b5366004612bd7565b6114e3565b6102d06105c8366004612929565b611810565b6102d06105db366004612c64565b611861565b6102d06105ee366004612a9d565b6118c8565b610483611990565b6102d06119f7565b6102e5610611366004612929565b611a1b565b61039e610624366004612929565b611a44565b610483611de6565b6102d061063f366004612cab565b611e4d565b6102d0610652366004612a7b565b611f39565b6102d0610665366004612929565b612069565b6103e3610678366004612929565b6120dd565b6102d061068b366004612a7b565b6120fd565b6102d061069e366004612ce4565b6122a9565b610483612470565b6103e36106b9366004612929565b6124d7565b6106c66124f7565b60008181526020819052604090206019600a82015460ff16601c8111156106ef576106ef612942565b146106f957600080fd5b845161070e90600b8301906020880190612727565b5083516107249060078301906020870190612727565b50825161073a9060068301906020860190612727565b50600a01805460ff1916601a17905550505050565b6000610759612515565b506000818152602081905260409020546001600160a01b03165b919050565b600061078261254b565b506000908152602081905260409020600a015460ff1690565b6107a36125b4565b60008181526020819052604090206006600a82015460ff16601c8111156107cc576107cc612942565b14806107f057506008600a82015460ff16601c8111156107ee576107ee612942565b145b6107f957600080fd5b600a810180546009919060ff19166001835b02179055505050565b61081c6125d0565b336000908152600b60205260409020805460ff19166001179055565b6108406125b4565b60008181526020819052604090206013600a82015460ff16601c81111561086957610869612942565b148061088d57506014600a82015460ff16601c81111561088b5761088b612942565b145b806108b057506011600a82015460ff16601c8111156108ae576108ae612942565b145b6108b957600080fd5b600a810180546016919060ff191660018361080b565b6108d76125d0565b336000908152600a60205260409020805460ff19166001179055565b6060806060610900612640565b60008481526020819052604090206016600a82015460ff16601c81111561092957610929612942565b1461093357600080fd5b806007018160060182600b0182805461094b90612d20565b80601f016020809104026020016040519081016040528092919081815260200182805461097790612d20565b80156109c45780601f10610999576101008083540402835291602001916109c4565b820191906000526020600020905b8154815290600101906020018083116109a757829003601f168201915b505050505092508180546109d790612d20565b80601f0160208091040260200160405190810160405280929190818152602001828054610a0390612d20565b8015610a505780601f10610a2557610100808354040283529160200191610a50565b820191906000526020600020905b815481529060010190602001808311610a3357829003601f168201915b50505050509150808054610a6390612d20565b80601f0160208091040260200160405190810160405280929190818152602001828054610a8f90612d20565b8015610adc5780601f10610ab157610100808354040283529160200191610adc565b820191906000526020600020905b815481529060010190602001808311610abf57829003601f168201915b50505050509050935093509350509193909250565b60606000806000610b0061254b565b6000858152602081905260409020600d810154600e820154600f830154600c90930180549093600160a01b900460ff16908490610b3c90612d20565b80601f0160208091040260200160405190810160405280929190818152602001828054610b6890612d20565b8015610bb55780601f10610b8a57610100808354040283529160200191610bb5565b820191906000526020600020905b815481529060010190602001808311610b9857829003601f168201915b5050505050935093509350935093509193509193565b6000610bd561265c565b5060009081526020819052604090206003015490565b610bf36124f7565b60408051808201909152601981527f446f63756d656e747356657269666965644279547261646572000000000000006020909101527f840adeed8e50b132dbe51c080c32143ef15f8bf9056bfa892ad9313bed8d12ef8101610c9b5760008281526020819052604090206018600a82015460ff16601c811115610c7857610c78612942565b14610c8257600080fd5b600a810180546019919060ff19166001835b0217905550505b5050565b610ca7612691565b80610cb1816126c6565b60008381526020819052604090206012600a82015460ff16601c811115610cda57610cda612942565b1480610cfe57506013600a82015460ff16601c811115610cfc57610cfc612942565b145b80610d2157506011600a82015460ff16601c811115610d1f57610d1f612942565b145b610d2a57600080fd5b600581018390556012600a82015460ff16601c811115610d4c57610d4c612942565b14610d58576012610d5b565b60135b600a8201805460ff1916600183601c811115610d7957610d79612942565b021790555050505050565b610d8c6125d0565b336000908152600c60205260409020805460ff19166001179055565b610db0612691565b60008281526020819052604090206010600a82015460ff16601c811115610dd957610dd9612942565b1480610dfd57506012600a82015460ff16601c811115610dfb57610dfb612942565b145b80610e2057506013600a82015460ff16601c811115610e1e57610e1e612942565b145b80610e4357506011600a82015460ff16601c811115610e4157610e41612942565b145b610e4c57600080fd5b600a8101805460ff191660151790556001600160a01b038216600090815260076020908152604080832086845260089092529091205481548110610e9257610e92612d5a565b6000918252602082200155505050565b610eaa6124f7565b60008181526020819052604090206001600a82015460ff16601c811115610ed357610ed3612942565b1480610ef757506003600a82015460ff16601c811115610ef557610ef5612942565b145b610f0057600080fd5b600a810180546004919060ff191660018361080b565b610f1e6125b4565b6000818152602081905260409020600e600a82015460ff16601c811115610f4757610f47612942565b14610f5157600080fd5b600a8101805460ff1916600f1790558451610f759060078301906020880190612727565b508351610f8b90600b8301906020870190612727565b50600e0191909155505050565b6060610fa26125b4565b3360009081526003602090815260409182902080548351818402810184019094528084529091830182828015610ff757602002820191906000526020600020905b815481526020019060010190808311610fe3575b5050505050905090565b600061100b6125b4565b506000908152602081905260409020600f01546001600160a01b031690565b6110326126d6565b808261103d816126c6565b60008581526020819052604090206006600a82015460ff16601c81111561106657611066612942565b148061108a57506007600a82015460ff16601c81111561108857611088612942565b145b806110ad57506008600a82015460ff16601c8111156110ab576110ab612942565b145b6110b657600080fd5b60048101859055600981018490556008600a82015460ff16601c8111156110df576110df612942565b148061110357506006600a82015460ff16601c81111561110157611101612942565b145b61110e576008611111565b60075b600a8201805460ff1916600183601c81111561112f5761112f612942565b0217905550505050505050565b6000611146612515565b506000908152602081905260409020600201546001600160a01b031690565b60608060606111726124f7565b60008481526020819052604090206018600a82015460ff16601c81111561119b5761119b612942565b101561093357600080fd5b6111ae61265c565b80826111b9816126c6565b60008581526020819052604090206001600a82015460ff16601c8111156111e2576111e2612942565b148061120657506003600a82015460ff16601c81111561120457611204612942565b145b8061122957506002600a82015460ff16601c81111561122757611227612942565b145b61123257600080fd5b600380820186905560088201859055600a82015460ff16601c81111561125a5761125a612942565b148061127e57506001600a82015460ff16601c81111561127c5761127c612942565b145b611289576003611111565b600a810180546002919060ff191660018361112f565b60006112a96126d6565b5060009081526020819052604090206009015490565b6112c7612640565b806112d1816126c6565b60008381526020819052604090206010600a82015460ff16601c8111156112fa576112fa612942565b1461130457600080fd5b60058101839055600a810180546011919060ff1916600183610d79565b6113296124f7565b60008181526020819052604090206007600a82015460ff16601c81111561135257611352612942565b148061137657506009600a82015460ff16601c81111561137457611374612942565b145b61137f57600080fd5b600a81018054600b919060ff191660018361080b565b61139d612640565b60176000828152602081905260409020600a015460ff16601c8111156113c5576113c5612942565b146113cf57600080fd5b6000908152602081905260409020600a01805460ff19166018179055565b6113f56125b4565b6000818152602081905260409020600f600a82015460ff16601c81111561141e5761141e612942565b148061144257506015600a82015460ff16601c81111561144057611440612942565b145b61144b57600080fd5b600f810180546001600160a01b0319166001600160a01b038516908117909155600081815260076020908152604082208054600181810183558285529284200186905592909152905461149e9190612d70565b600083815260086020526040902055600a810180546010919060ff1916600183610c94565b60006114cd612691565b5060009081526020819052604090206005015490565b6114eb61270b565b83866114f6816126c6565b600060405180610220016040528060006001600160a01b03168152602001896001600160a01b03168152602001336001600160a01b031681526020018a81526020016000815260200160008152602001604051806020016040528060008152508152602001604051806020016040528060008152508152602001888152602001600081526020016001601c81111561159057611590612942565b81526020016040518060200160405280600081525081526020018781526020018681526020016000815260200160006001600160a01b031681526020018560068111156115df576115df612942565b905260008b81526020818152604091829020835181546001600160a01b03199081166001600160a01b0392831617835585840151600184018054831691841691909117905593850151600283018054909516911617909255606083015160038301556080830151600483015560a0830151600583015560c0830151805193945084936116719260068501920190612727565b5060e0820151805161168d916007840191602090910190612727565b5061010082015160088201556101208201516009820155610140820151600a8201805460ff1916600183601c8111156116c8576116c8612942565b021790555061016082015180516116e991600b840191602090910190612727565b50610180820151805161170691600c840191602090910190612727565b506101a0820151600d8201556101c0820151600e8201556101e0820151600f820180546001600160a01b039092166001600160a01b0319831681178255610200850151926001600160a81b03191617600160a01b83600681111561176c5761176c612942565b0217905550503360008181526001602081815260408320805480840182558185529184209091018f90559290915290546117a69250612d70565b60008b8152600260209081526040808320939093556001600160a01b038b1680835260058252928220805460018181018355828552928420018e90559290915290546117f29190612d70565b60009a8b5260066020526040909a2099909955505050505050505050565b611818612640565b60008181526020819052604090206012600a82015460ff16601c81111561184157611841612942565b1461184b57600080fd5b600a810180546014919060ff191660018361080b565b611869612640565b60008281526020819052604090206016600a82015460ff16601c81111561189257611892612942565b1461189c57600080fd5b81516118b19060068301906020850190612727565b50600a810180546017919060ff1916600183610c94565b6118d06126d6565b60008281526020819052604090206006600a82015460ff16601c8111156118f9576118f9612942565b148061191d57506008600a82015460ff16601c81111561191b5761191b612942565b145b8061194057506007600a82015460ff16601c81111561193e5761193e612942565b145b61194957600080fd5b600a818101805460ff191690911790556001600160a01b038216600090815260036020908152604080832086845260049092529091205481548110610e9257610e92612d5a565b606061199a61270b565b3360009081526001602090815260409182902080548351818402810184019094528084529091830182828015610ff75760200282019190600052602060002090815481526020019060010190808311610fe3575050505050905090565b6119ff6125d0565b336000908152600960205260409020805460ff19166001179055565b6000611a2561254b565b506000908152602081905260409020600101546001600160a01b031690565b6060806060611a5161270b565b60008481526020818152604080832081516102208101835281546001600160a01b03908116825260018301548116948201949094526002820154909316918301919091526003810154606083015260048101546080830152600581015460a083015260068101805460c084019190611ac890612d20565b80601f0160208091040260200160405190810160405280929190818152602001828054611af490612d20565b8015611b415780601f10611b1657610100808354040283529160200191611b41565b820191906000526020600020905b815481529060010190602001808311611b2457829003601f168201915b50505050508152602001600782018054611b5a90612d20565b80601f0160208091040260200160405190810160405280929190818152602001828054611b8690612d20565b8015611bd35780601f10611ba857610100808354040283529160200191611bd3565b820191906000526020600020905b815481529060010190602001808311611bb657829003601f168201915b50505091835250506008820154602082015260098201546040820152600a82015460609091019060ff16601c811115611c0e57611c0e612942565b601c811115611c1f57611c1f612942565b8152602001600b82018054611c3390612d20565b80601f0160208091040260200160405190810160405280929190818152602001828054611c5f90612d20565b8015611cac5780601f10611c8157610100808354040283529160200191611cac565b820191906000526020600020905b815481529060010190602001808311611c8f57829003601f168201915b50505050508152602001600c82018054611cc590612d20565b80601f0160208091040260200160405190810160405280929190818152602001828054611cf190612d20565b8015611d3e5780601f10611d1357610100808354040283529160200191611d3e565b820191906000526020600020905b815481529060010190602001808311611d2157829003601f168201915b5050509183525050600d8201546020820152600e8201546040820152600f8201546001600160a01b0381166060830152608090910190600160a01b900460ff166006811115611d8f57611d8f612942565b6006811115611da057611da0612942565b9052509050601a816101400151601c811115611dbe57611dbe612942565b1015611dc957600080fd5b60e081015160c08201516101609092015190969195509350915050565b6060611df06124f7565b3360009081526005602090815260409182902080548351818402810184019094528084529091830182828015610ff75760200282019190600052602060002090815481526020019060010190808311610fe3575050505050905090565b611e556124f7565b8183611e60816126c6565b60008381526020819052604090206005600a82015460ff16601c811115611e8957611e89612942565b1480611eac5750600a8082015460ff16601c811115611eaa57611eaa612942565b145b611eb557600080fd5b600481018690556009810185905580546001600160a01b0319166001600160a01b03881690811782556000818152600360209081526040822080546001818101835582855292842001889055929091529054611f119190612d70565b600094855260046020526040909420939093555050600a01805460ff19166006179055505050565b611f4161270b565b600082815260208181526040918290208251808401909352601883527f446f63756d656e7473566572696669656442794275796572000000000000000092909101919091527f436660f49c03131e2034648a09c2237f6a8c96fa4ca06527073d5388aaecb3158201611fe457601a600a82015460ff16601c811115611fc857611fc8612942565b14611fd257600080fd5b600a01805460ff1916601b1790555050565b60408051808201909152600681526510db1bdcd95960d21b6020909101527fe337797b57fb4eb1ce7a9bcec3c403f282b0061ba19dcce7453c80daf2493da2820161206457601b600a82015460ff16601c81111561204457612044612942565b1461204e57600080fd5b600a81018054601c919060ff1916600183610c94565b505050565b61207161270b565b60008181526020819052604090206002600a82015460ff16601c81111561209a5761209a612942565b14806120be57506004600a82015460ff16601c8111156120bc576120bc612942565b145b6120c757600080fd5b600a810180546005919060ff191660018361080b565b60006120e76126d6565b5060009081526020819052604090206004015490565b6121056125b4565b6000828152602081905260409020600b600a82015460ff16601c81111561212e5761212e612942565b101561213957600080fd5b60408051808201909152600f81526e13585d195c9a585b14dbdd5c98d959608a1b6020909101527f4d7941f18e09fe840a3c8d4c262755ba64b64ac31d934c1c6e742d11d4f67221820161219d57600a81018054600c919060ff1916600183610c94565b604080518082019091526009815268496e466163746f727960b81b6020909101527fc77b1e512ed04d1edb243db33f0bc5f0c25fa91117fd283fde6a7df92e8fcace82016121fb57600a81018054600d919060ff1916600183610c94565b60408051808201909152600e81526d145d585b1a5d1e50dbdb9d1c9bdb60921b6020909101527f034187371850c01fe8a53b23fc096d35c7fc1bdf98536837d67d0c72ff5ecebc820161206457600c600a82015460ff16601c81111561226357612263612942565b1415801561228a5750600b600a82015460ff16601c81111561228757612287612942565b14155b61229357600080fd5b600a81018054600e919060ff1916600183610c94565b6122b161265c565b60008381526020819052604090206001600a82015460ff16601c8111156122da576122da612942565b14806122fe57506002600a82015460ff16601c8111156122fc576122fc612942565b145b8061232157506003600a82015460ff16601c81111561231f5761231f612942565b145b61232a57600080fd5b600084815260208190526040812080546001600160a01b031990811682556001820180548216905560028201805490911690556003810182905560048101829055600581018290559061238060068301826127ab565b61238e6007830160006127ab565b60006008830181905560098301819055600a8301805460ff191690556123b890600b8401906127ab565b6123c6600c830160006127ab565b506000600d8201819055600e8201819055600f90910180546001600160a81b03191690556001600160a01b03841681526001602090815260408083208784526002909252909120548154811061241e5761241e612d5a565b600091825260208083209091018290556001600160a01b03841682526005815260408083208784526006909252909120548154811061245f5761245f612d5a565b600091825260208220015550505050565b606061247a612640565b3360009081526007602090815260409182902080548351818402810184019094528084529091830182828015610ff75760200282019190600052602060002090815481526020019060010190808311610fe3575050505050905090565b60006124e161265c565b5060009081526020819052604090206008015490565b336000908152600b602052604090205460ff1661251357600080fd5b565b336000908152600c602052604090205460ff16806125425750336000908152600b602052604090205460ff165b61251357600080fd5b336000908152600a602052604090205460ff16806125785750336000908152600b602052604090205460ff165b806125925750336000908152600c602052604090205460ff165b8061254257503360009081526009602052604090205460ff1661251357600080fd5b336000908152600a602052604090205460ff1661251357600080fd5b336000908152600b602052604090205460ff161580156126005750336000908152600a602052604090205460ff16155b801561261c57503360009081526009602052604090205460ff16155b80156125425750336000908152600c602052604090205460ff161561251357600080fd5b336000908152600c602052604090205460ff1661251357600080fd5b336000908152600b602052604090205460ff168061254257503360009081526009602052604090205460ff1661251357600080fd5b336000908152600a602052604090205460ff16806125425750336000908152600c602052604090205460ff1661251357600080fd5b600081116126d357600080fd5b50565b336000908152600a602052604090205460ff16806125425750336000908152600b602052604090205460ff1661251357600080fd5b3360009081526009602052604090205460ff1661251357600080fd5b82805461273390612d20565b90600052602060002090601f016020900481019282612755576000855561279b565b82601f1061276e57805160ff191683800117855561279b565b8280016001018555821561279b579182015b8281111561279b578251825591602001919060010190612780565b506127a79291506127e1565b5090565b5080546127b790612d20565b6000825580601f106127c7575050565b601f0160209004906000526020600020908101906126d391905b5b808211156127a757600081556001016127e2565b634e487b7160e01b600052604160045260246000fd5b600082601f83011261281d57600080fd5b813567ffffffffffffffff80821115612838576128386127f6565b604051601f8301601f19908116603f01168101908282118183101715612860576128606127f6565b8160405283815286602085880101111561287957600080fd5b836020870160208301376000602085830101528094505050505092915050565b600080600080608085870312156128af57600080fd5b843567ffffffffffffffff808211156128c757600080fd5b6128d38883890161280c565b955060208701359150808211156128e957600080fd5b6128f58883890161280c565b9450604087013591508082111561290b57600080fd5b506129188782880161280c565b949793965093946060013593505050565b60006020828403121561293b57600080fd5b5035919050565b634e487b7160e01b600052602160045260246000fd5b60208101601d831061296c5761296c612942565b91905290565b80356001600160a01b038116811461077357600080fd5b60006020828403121561299b57600080fd5b6129a482612972565b9392505050565b6000815180845260005b818110156129d1576020818501810151868301820152016129b5565b818111156129e3576000602083870101525b50601f01601f19169290920160200192915050565b606081526000612a0b60608301866129ab565b8281036020840152612a1d81866129ab565b90508281036040840152612a3181856129ab565b9695505050505050565b608081526000612a4e60808301876129ab565b905084602083015283604083015260078310612a6c57612a6c612942565b82606083015295945050505050565b60008060408385031215612a8e57600080fd5b50508035926020909101359150565b60008060408385031215612ab057600080fd5b82359150612ac060208401612972565b90509250929050565b60008060008060808587031215612adf57600080fd5b843567ffffffffffffffff80821115612af757600080fd5b612b038883890161280c565b95506020870135915080821115612b1957600080fd5b50612b268782880161280c565b949794965050505060408301359260600135919050565b6020808252825182820181905260009190848201906040850190845b81811015612b7557835183529284019291840191600101612b59565b50909695505050505050565b600080600060608486031215612b9657600080fd5b505081359360208301359350604090920135919050565b60008060408385031215612bc057600080fd5b612bc983612972565b946020939093013593505050565b600080600080600080600060e0888a031215612bf257600080fd5b8735965060208801359550612c0960408901612972565b945060608801359350608088013567ffffffffffffffff811115612c2c57600080fd5b612c388a828b0161280c565b93505060a0880135915060c088013560078110612c5457600080fd5b8091505092959891949750929550565b60008060408385031215612c7757600080fd5b82359150602083013567ffffffffffffffff811115612c9557600080fd5b612ca18582860161280c565b9150509250929050565b60008060008060808587031215612cc157600080fd5b612cca85612972565b966020860135965060408601359560600135945092505050565b600080600060608486031215612cf957600080fd5b83359250612d0960208501612972565b9150612d1760408501612972565b90509250925092565b600181811c90821680612d3457607f821691505b602082108103612d5457634e487b7160e01b600052602260045260246000fd5b50919050565b634e487b7160e01b600052603260045260246000fd5b600082821015612d9057634e487b7160e01b600052601160045260246000fd5b50039056fea264697066735822122027ef18431c6315066994af532de1443f0b62d245a20923d204d548463023dc2264736f6c634300080e0033",
  "immutableReferences": {},
  "source": "// SPDX-License-Identifier: MIT\npragma solidity >=0.4.22 <0.9.0;\n\ncontract SupplyChain {\n    enum State {\n        DefaultState,\n        Created,\n        RevertedTraderToBuyer,\n        RevertedBuyerToTrader,\n        ConfirmedTraderToBuyer,\n        AcceptedTrader,\n        FoundSupplier,\n        RevertedSupplierToTrader,\n        RevertedTraderToSupplier,\n        ConfirmedSupplierToTrader,\n        RejectedSupplier,\n        AcceptedSupplier,\n        MaterialSourced,\n        InFactory,\n        QualityControl,\n        ProductionCompleted,\n        FoundShippingLine,\n        AddedAmountShippingLine,\n        RevertedSupplierToShippingLine,\n        RevertedShippingLineToSupplier,\n        ConfirmedShippingLineToSupplier,\n        RejectedShippingLine,\n        AcceptedShippingLine,\n        BlUploaded,\n        Shipped,\n        DocumentsVerifiedByTrader,\n        DocumentsUpdatedByTrader,\n        DocumentsVerifiedByBuyer,\n        Closed\n    }\n\n    enum Unit {\n        piece,\n        yard,\n        metricTon,\n        litres,\n        kilogram,\n        barrel,\n        cubicMetre\n    }\n\n    struct Order {\n        address supplier;\n        address trader;\n        address buyer;\n        uint256 amountToTrader;\n        uint256 amountToSupplier;\n        uint256 amountToShippingLine;\n        string BL;\n        string PL;\n        uint256 percentAdvanceForTrader;\n        uint256 percentAdvanceForSupplier;\n        State state;\n        string invoice;\n        string commodity;\n        uint256 quantity;\n        uint256 finalQuantity;\n        address shippingLine;\n        Unit unit;\n    }\n\n    mapping(bytes32 => Order) private hashToOrder;\n    mapping(address => bytes32[]) private buyersToHashes;\n    mapping(bytes32 => uint256) private buyerHashesToIndexes;\n    mapping(address => bytes32[]) private suppliersToHashes;\n    mapping(bytes32 => uint256) private supplierHashesToIndexes;\n    mapping(address => bytes32[]) private tradersToHashes;\n    mapping(bytes32 => uint256) private traderHashesToIndexes;\n    mapping(address => bytes32[]) private shippingLinesToHashes;\n    mapping(bytes32 => uint256) private shippingLinesHashesToIndexes;\n    mapping(address => bool) public buyers;\n    mapping(address => bool) public suppliers;\n    mapping(address => bool) public traders;\n    mapping(address => bool) public shippingLines;\n\n    // done to reduce contract size\n    function _onlyTrader() private view {\n        require(traders[msg.sender]);\n    }\n\n    function _onlySupplier() private view {\n        require(suppliers[msg.sender]);\n    }\n\n    function _onlySupplierOrShippingLine() private view {\n        require(suppliers[msg.sender] || shippingLines[msg.sender]);\n    }\n\n    function _onlyUser() private view {\n        require(\n            suppliers[msg.sender] ||\n                traders[msg.sender] ||\n                shippingLines[msg.sender] ||\n                buyers[msg.sender]\n        );\n    }\n\n    function _notNegative(uint256 val) private pure {\n        require(val >= 0);\n    }\n\n    function _greaterThanZero(uint256 val) private pure {\n        require(val > 0);\n    }\n\n    function _canGetBuyer() private view {\n        require(shippingLines[msg.sender] || traders[msg.sender]);\n    }\n\n    function _onlySupplierOrTrader() private view {\n        require(suppliers[msg.sender] || traders[msg.sender]);\n    }\n\n    function _onlyBuyer() private view {\n        require(buyers[msg.sender]);\n    }\n\n    function _onlyShippingLine() private view {\n        require(shippingLines[msg.sender]);\n    }\n\n    function _onlyTraderOrShippingLine() private view {\n        require(shippingLines[msg.sender] || traders[msg.sender]);\n    }\n\n    function _onlyBuyerOrTrader() private view {\n        require(traders[msg.sender] || buyers[msg.sender]);\n    }\n\n    function _notAccountCreated() private view {\n        require(\n            !traders[msg.sender] &&\n                !suppliers[msg.sender] &&\n                !buyers[msg.sender] &&\n                !shippingLines[msg.sender]\n        );\n    }\n\n    modifier onlyTrader() {\n        _onlyTrader();\n        _;\n    }\n\n    modifier onlySupplier() {\n        _onlySupplier();\n        _;\n    }\n\n    modifier onlySupplierOrShippingLine() {\n        _onlySupplierOrShippingLine();\n        _;\n    }\n\n    modifier onlyUser() {\n        _onlyUser();\n        _;\n    }\n\n    modifier notNegative(uint256 val) {\n        _notNegative(val);\n        _;\n    }\n\n    modifier greaterThanZero(uint256 val) {\n        _greaterThanZero(val);\n        _;\n    }\n\n    modifier canGetBuyer() {\n        _canGetBuyer();\n        _;\n    }\n\n    modifier onlySupplierOrTrader() {\n        _onlySupplierOrTrader();\n        _;\n    }\n\n    modifier onlyBuyer() {\n        _onlyBuyer();\n        _;\n    }\n\n    modifier onlyShippingLine() {\n        _onlyShippingLine();\n        _;\n    }\n\n    modifier onlyTraderOrShippingLine() {\n        _onlyTraderOrShippingLine();\n        _;\n    }\n\n    modifier onlyBuyerOrTrader() {\n        _onlyBuyerOrTrader();\n        _;\n    }\n\n    modifier notAccountCreated() {\n        _notAccountCreated();\n        _;\n    }\n\n    function signUpBuyer() external notAccountCreated {\n        buyers[msg.sender] = true;\n    }\n\n    function signUpTrader() external notAccountCreated {\n        traders[msg.sender] = true;\n    }\n\n    function signUpSupplier() external notAccountCreated {\n        suppliers[msg.sender] = true;\n    }\n\n    function signUpShippingLine() external notAccountCreated {\n        shippingLines[msg.sender] = true;\n    }\n\n    function createOrder(\n        bytes32 hash,\n        uint256 amountToTrader, // in gwei\n        address trader,\n        uint256 percentAdvanceForTrader, // will be divided by hundred when used\n        string memory commodity,\n        uint256 quantity,\n        Unit unit\n    )\n        external\n        onlyBuyer\n        notNegative(percentAdvanceForTrader)\n        greaterThanZero(amountToTrader)\n    {\n        Order memory order = Order(\n            address(0),\n            trader,\n            msg.sender,\n            amountToTrader,\n            0,\n            0,\n            \"\",\n            \"\",\n            percentAdvanceForTrader,\n            0,\n            State.Created,\n            \"\",\n            commodity,\n            quantity,\n            0,\n            address(0),\n            unit\n        );\n        hashToOrder[hash] = order;\n        buyersToHashes[msg.sender].push(hash);\n        buyerHashesToIndexes[hash] = buyersToHashes[msg.sender].length - 1;\n        tradersToHashes[trader].push(hash);\n        traderHashesToIndexes[hash] = tradersToHashes[trader].length - 1;\n    }\n\n    function acceptOrderTrader(bytes32 hash) external onlyBuyer {\n        Order storage order = hashToOrder[hash];\n        require(\n            order.state == State.RevertedTraderToBuyer ||\n                order.state == State.ConfirmedTraderToBuyer\n        );\n        order.state = State.AcceptedTrader;\n        // Transaction logic for when there is advance payment handled in javascript\n    }\n\n    function rejectOrderBuyerOrTrader(\n        bytes32 hash,\n        address buyer,\n        address trader\n    ) external onlyBuyerOrTrader {\n        Order storage order = hashToOrder[hash];\n        require(\n            order.state == State.Created ||\n                order.state == State.RevertedTraderToBuyer ||\n                order.state == State.RevertedBuyerToTrader\n        );\n        delete hashToOrder[hash];\n        delete buyersToHashes[buyer][buyerHashesToIndexes[hash]];\n        delete tradersToHashes[trader][traderHashesToIndexes[hash]];\n    }\n\n    function revertOrderBuyerOrTrader(\n        bytes32 hash,\n        uint256 amountToTrader,\n        uint256 percentAdvanceForTrader\n    )\n        external\n        onlyBuyerOrTrader\n        notNegative(percentAdvanceForTrader)\n        greaterThanZero(amountToTrader)\n    {\n        Order storage order = hashToOrder[hash];\n        require(\n            order.state == State.Created ||\n                order.state == State.RevertedBuyerToTrader ||\n                order.state == State.RevertedTraderToBuyer\n        );\n        order.amountToTrader = amountToTrader;\n        order.percentAdvanceForTrader = percentAdvanceForTrader;\n        order.state = order.state == State.RevertedBuyerToTrader ||\n            order.state == State.Created\n            ? State.RevertedTraderToBuyer\n            : State.RevertedBuyerToTrader;\n    }\n\n    function confirmOrderTraderToBuyer(bytes32 hash) external onlyTrader {\n        Order storage order = hashToOrder[hash];\n        require(\n            order.state == State.Created ||\n                order.state == State.RevertedBuyerToTrader\n        );\n        order.state = State.ConfirmedTraderToBuyer;\n    }\n\n    function getCommodityAndQuantity(bytes32 hash)\n        external\n        view\n        onlyUser\n        returns (\n            string memory,\n            uint256,\n            uint256,\n            Unit\n        )\n    {\n        return (\n            hashToOrder[hash].commodity,\n            hashToOrder[hash].quantity,\n            hashToOrder[hash].finalQuantity,\n            hashToOrder[hash].unit\n        );\n    }\n\n    function addSupplierToOrder(\n        address supplier,\n        uint256 amountToSupplier,\n        uint256 percentAdvanceForSupplier,\n        bytes32 hash\n    )\n        external\n        onlyTrader\n        notNegative(percentAdvanceForSupplier)\n        greaterThanZero(amountToSupplier)\n    {\n        Order storage order = hashToOrder[hash];\n        require(\n            order.state == State.AcceptedTrader ||\n                order.state == State.RejectedSupplier\n        );\n        order.amountToSupplier = amountToSupplier;\n        order.percentAdvanceForSupplier = percentAdvanceForSupplier;\n        order.supplier = supplier;\n        suppliersToHashes[supplier].push(hash);\n        supplierHashesToIndexes[hash] = suppliersToHashes[supplier].length - 1;\n        order.state = State.FoundSupplier;\n    }\n\n    function acceptOrderSupplier(bytes32 hash) external onlyTrader {\n        Order storage order = hashToOrder[hash];\n        require(\n            order.state == State.RevertedSupplierToTrader ||\n                order.state == State.ConfirmedSupplierToTrader\n        );\n        order.state = State.AcceptedSupplier;\n        // Transaction logic for when there is advance payment handled in javascript\n        // calculate total amount with amount per unit * quantity\n    }\n\n    function rejectOrderSupplierOrTrader(bytes32 hash, address supplier)\n        external\n        onlySupplierOrTrader\n    {\n        Order storage order = hashToOrder[hash];\n        require(\n            order.state == State.FoundSupplier ||\n                order.state == State.RevertedTraderToSupplier ||\n                order.state == State.RevertedSupplierToTrader\n        );\n        order.state = State.RejectedSupplier;\n        delete suppliersToHashes[supplier][supplierHashesToIndexes[hash]];\n    }\n\n    function revertOrderSupplierOrTrader(\n        bytes32 hash,\n        uint256 amountToSupplier,\n        uint256 percentAdvanceForSupplier\n    )\n        external\n        onlySupplierOrTrader\n        notNegative(percentAdvanceForSupplier)\n        greaterThanZero(amountToSupplier)\n    {\n        Order storage order = hashToOrder[hash];\n        require(\n            order.state == State.FoundSupplier ||\n                order.state == State.RevertedSupplierToTrader ||\n                order.state == State.RevertedTraderToSupplier\n        );\n        order.amountToSupplier = amountToSupplier;\n        order.percentAdvanceForSupplier = percentAdvanceForSupplier;\n        order.state = order.state == State.RevertedTraderToSupplier ||\n            order.state == State.FoundSupplier\n            ? State.RevertedSupplierToTrader\n            : State.RevertedTraderToSupplier;\n    }\n\n    function confirmOrderSupplierToTrader(bytes32 hash) external onlySupplier {\n        Order storage order = hashToOrder[hash];\n        require(\n            order.state == State.FoundSupplier ||\n                order.state == State.RevertedTraderToSupplier\n        );\n        order.state = State.ConfirmedSupplierToTrader;\n    }\n\n    function getAmountToTrader(bytes32 hash)\n        external\n        view\n        onlyBuyerOrTrader\n        returns (uint256)\n    {\n        return hashToOrder[hash].amountToTrader;\n    }\n\n    function getAmountToSupplier(bytes32 hash)\n        external\n        view\n        onlySupplierOrTrader\n        returns (uint256)\n    {\n        return hashToOrder[hash].amountToSupplier;\n    }\n\n    function getAmountToShippingLine(bytes32 hash)\n        external\n        view\n        onlySupplierOrShippingLine\n        returns (uint256)\n    {\n        return hashToOrder[hash].amountToShippingLine;\n    }\n\n    function getSupplier(bytes32 hash)\n        external\n        view\n        onlyTraderOrShippingLine\n        returns (address)\n    {\n        return hashToOrder[hash].supplier;\n    }\n\n    function getBuyer(bytes32 hash)\n        external\n        view\n        canGetBuyer\n        returns (address)\n    {\n        return hashToOrder[hash].buyer;\n    }\n\n    function getTrader(bytes32 hash) external view onlyUser returns (address) {\n        return hashToOrder[hash].trader;\n    }\n\n    function getShippingLine(bytes32 hash)\n        external\n        view\n        onlySupplier\n        returns (address)\n    {\n        return hashToOrder[hash].shippingLine;\n    }\n\n    function getAdvancePercentForTrader(bytes32 hash)\n        external\n        view\n        onlyBuyerOrTrader\n        returns (uint256)\n    {\n        return hashToOrder[hash].percentAdvanceForTrader;\n    }\n\n    function getAdvancePercentForSupplier(bytes32 hash)\n        external\n        view\n        onlySupplierOrTrader\n        returns (uint256)\n    {\n        return hashToOrder[hash].percentAdvanceForSupplier;\n    }\n\n    function updateStateBySupplier(bytes32 hash, bytes32 update)\n        external\n        onlySupplier\n    {\n        Order storage order = hashToOrder[hash];\n        require(order.state >= State.AcceptedSupplier);\n        if (update == keccak256(bytes(\"MaterialSourced\"))) {\n            order.state = State.MaterialSourced;\n        } else if (update == keccak256(bytes(\"InFactory\"))) {\n            order.state = State.InFactory;\n        } else if (update == keccak256(bytes(\"QualityControl\"))) {\n            require(\n                order.state != State.MaterialSourced &&\n                    order.state != State.AcceptedSupplier\n            );\n            order.state = State.QualityControl;\n        }\n    }\n\n    function updateStateByBuyer(bytes32 hash, bytes32 update)\n        external\n        onlyBuyer\n    {\n        Order storage order = hashToOrder[hash];\n        if (update == keccak256(bytes(\"DocumentsVerifiedByBuyer\"))) {\n            require(order.state == State.DocumentsUpdatedByTrader);\n            order.state = State.DocumentsVerifiedByBuyer;\n        } else if (update == keccak256(bytes(\"Closed\"))) {\n            require(order.state == State.DocumentsVerifiedByBuyer);\n            order.state = State.Closed;\n        }\n    }\n\n    function updateStateByTrader(bytes32 hash, bytes32 update)\n        external\n        onlyTrader\n    {\n        // should only be able to set state as DocumentsVerifiedByTrader\n        if (update == keccak256(bytes(\"DocumentsVerifiedByTrader\"))) {\n            Order storage order = hashToOrder[hash];\n            require(order.state == State.Shipped);\n            order.state = State.DocumentsVerifiedByTrader;\n        }\n    }\n\n    function getState(bytes32 hash) external view onlyUser returns (State) {\n        return hashToOrder[hash].state;\n    }\n\n    function uploadBL(bytes32 hash, string memory BL)\n        external\n        onlyShippingLine\n    {\n        Order storage order = hashToOrder[hash];\n        require(order.state == State.AcceptedShippingLine);\n        order.BL = BL;\n        order.state = State.BlUploaded;\n    }\n\n    function ship(bytes32 hash) external onlyShippingLine {\n        require(hashToOrder[hash].state == State.BlUploaded);\n        hashToOrder[hash].state = State.Shipped;\n        // after this point, in JS there is a transaction between supplier and shipping line: supplier -> shipping line\n    }\n\n    function onProductionComplete(\n        string memory PL,\n        string memory invoice,\n        uint256 finalQuantity,\n        bytes32 hash\n    ) external onlySupplier {\n        Order storage order = hashToOrder[hash];\n        require(order.state == State.QualityControl);\n        order.state = State.ProductionCompleted;\n        order.PL = PL;\n        order.invoice = invoice;\n        // check for final quantity validity in JS\n        order.finalQuantity = finalQuantity;\n    }\n\n    function getDocumentsFromSupplier(bytes32 hash)\n        external\n        view\n        onlyShippingLine\n        returns (\n            string memory,\n            string memory,\n            string memory\n        )\n    {\n        Order storage order = hashToOrder[hash];\n        require(order.state == State.AcceptedShippingLine);\n        return (order.PL, order.BL, order.invoice);\n        // calculate total amount with amount per unit * quantity - advance payment\n    }\n\n    function getDocumentsFromShippingLine(bytes32 hash)\n        external\n        view\n        onlyTrader\n        returns (\n            string memory,\n            string memory,\n            string memory\n        )\n    {\n        Order storage order = hashToOrder[hash];\n        require(order.state >= State.Shipped);\n        return (order.PL, order.BL, order.invoice);\n    }\n\n    function updateDocumentsFromSupplier(\n        string memory invoice,\n        string memory PL,\n        string memory BL,\n        bytes32 hash\n    ) external onlyTrader {\n        // FOLLOWING FUNCTIONALITY HAPPENS AFTER TRADER VERIFIES DOCUMENTS\n        // in JS state is set to DocumentsVerifiedByTrader\n        // Transaction logic handled in javascript: trader to supplier\n        Order storage order = hashToOrder[hash];\n        require(order.state == State.DocumentsVerifiedByTrader);\n        order.invoice = invoice;\n        order.PL = PL;\n        order.BL = BL;\n        order.state = State.DocumentsUpdatedByTrader;\n    }\n\n    function getDocumentsFromTrader(bytes32 hash)\n        external\n        view\n        onlyBuyer\n        returns (\n            string memory,\n            string memory,\n            string memory\n        )\n    {\n        // At this point, in Javascript, Supplier has set the state to be \"Shipped\".\n        Order memory order = hashToOrder[hash];\n        require(order.state >= State.DocumentsUpdatedByTrader);\n        return (order.PL, order.BL, order.invoice);\n        // FOLLOWING FUNCTIONALITY HAPPENS AFTER BUYERS VERIFIES DOCUMENTS\n        // when buyer verifies documents, state is set to DocumentsReceivedByBuyer\n        // Transaction logic(of sending money to trader) handled in javascript: buyer to trader\n        // after that, state is set to closed.\n        // calculate total amount with amount per unit * quantity - advance payment\n    }\n\n    function getHashesForBuyer()\n        external\n        view\n        onlyBuyer\n        returns (bytes32[] memory)\n    {\n        return buyersToHashes[msg.sender];\n    }\n\n    function getHashesForSupplier()\n        external\n        view\n        onlySupplier\n        returns (bytes32[] memory)\n    {\n        return suppliersToHashes[msg.sender];\n    }\n\n    function getHashesForTrader()\n        external\n        view\n        onlyTrader\n        returns (bytes32[] memory)\n    {\n        return tradersToHashes[msg.sender];\n    }\n\n    function getHashesForShippingLine()\n        external\n        view\n        onlyShippingLine\n        returns (bytes32[] memory)\n    {\n        return shippingLinesToHashes[msg.sender];\n    }\n\n    function addShippingLineToOrder(address shippingLine, bytes32 hash)\n        external\n        onlySupplier\n    {\n        Order storage order = hashToOrder[hash];\n        require(\n            order.state == State.ProductionCompleted ||\n                order.state == State.RejectedShippingLine\n        );\n        order.shippingLine = shippingLine;\n        shippingLinesToHashes[shippingLine].push(hash);\n        shippingLinesHashesToIndexes[hash] =\n            shippingLinesToHashes[shippingLine].length -\n            1;\n        order.state = State.FoundShippingLine;\n    }\n\n    function acceptOrderShippingLine(bytes32 hash) external onlySupplier {\n        Order storage order = hashToOrder[hash];\n        require(\n            order.state == State.RevertedShippingLineToSupplier ||\n                order.state == State.ConfirmedShippingLineToSupplier ||\n                order.state == State.AddedAmountShippingLine\n        );\n        order.state = State.AcceptedShippingLine;\n    }\n\n    function addAmountShippingLine(bytes32 hash, uint256 amountToShippingLine)\n        external\n        onlyShippingLine\n        greaterThanZero(amountToShippingLine)\n    {\n        Order storage order = hashToOrder[hash];\n        require(order.state == State.FoundShippingLine);\n        order.amountToShippingLine = amountToShippingLine;\n        order.state = State.AddedAmountShippingLine;\n    }\n\n    function rejectOrderShippingLine(bytes32 hash, address shippingLine)\n        external\n        onlySupplierOrShippingLine\n    {\n        Order storage order = hashToOrder[hash];\n        require(\n            order.state == State.FoundShippingLine ||\n                order.state == State.RevertedSupplierToShippingLine ||\n                order.state == State.RevertedShippingLineToSupplier ||\n                order.state == State.AddedAmountShippingLine\n        );\n        order.state = State.RejectedShippingLine;\n        // shippingLinesToHashes[shippingLine][\n        //     shippingLinesHashesToIndexes[hash]\n        // ] = shippingLinesToHashes[shippingLine][\n        //     shippingLinesToHashes[shippingLine].length - 1\n        // ];\n        // shippingLinesToHashes[shippingLine].pop();\n        delete shippingLinesToHashes[shippingLine][\n            shippingLinesHashesToIndexes[hash]\n        ];\n    }\n\n    function revertOrderShippingLine(bytes32 hash, uint256 amountToShippingLine)\n        external\n        onlySupplierOrShippingLine\n        greaterThanZero(amountToShippingLine)\n    {\n        Order storage order = hashToOrder[hash];\n        require(\n            order.state == State.RevertedSupplierToShippingLine ||\n                order.state == State.RevertedShippingLineToSupplier ||\n                order.state == State.AddedAmountShippingLine\n        );\n        order.amountToShippingLine = amountToShippingLine;\n        order.state = (order.state == State.RevertedSupplierToShippingLine)\n            ? State.RevertedShippingLineToSupplier\n            : State.RevertedSupplierToShippingLine;\n    }\n\n    function confirmOrderShippingLineToSupplier(bytes32 hash)\n        external\n        onlyShippingLine\n    {\n        Order storage order = hashToOrder[hash];\n        require(order.state == State.RevertedSupplierToShippingLine);\n        order.state = State.ConfirmedShippingLineToSupplier;\n    }\n}\n",
  "sourcePath": "/Users/aadivyaraushan/Documents/GitHub/supply-chain-blockchain/truffle/contracts/SupplyChain.sol",
  "compiler": {
    "name": "solc",
    "version": "0.8.14+commit.80d49f37.Emscripten.clang"
  },
  "schemaVersion": "3.4.14",
  "updatedAt": "2023-05-26T10:34:29.565Z",
  "networkType": "ethereum",
  "devdoc": {
    "kind": "dev",
    "methods": {},
    "version": 1
  },
  "userdoc": {
    "kind": "user",
    "methods": {},
    "version": 1
  }
}