{
  "contractName": "SupplyChain",
  "abi": [
    {
      "inputs": [
        {
          "internalType": "address",
          "name": "",
          "type": "address"
        }
      ],
      "name": "buyers",
      "outputs": [
        {
          "internalType": "bool",
          "name": "",
          "type": "bool"
        }
      ],
      "stateMutability": "view",
      "type": "function",
      "constant": true
    },
    {
      "inputs": [
        {
          "internalType": "address",
          "name": "",
          "type": "address"
        }
      ],
      "name": "shippingLines",
      "outputs": [
        {
          "internalType": "bool",
          "name": "",
          "type": "bool"
        }
      ],
      "stateMutability": "view",
      "type": "function",
      "constant": true
    },
    {
      "inputs": [
        {
          "internalType": "address",
          "name": "",
          "type": "address"
        }
      ],
      "name": "suppliers",
      "outputs": [
        {
          "internalType": "bool",
          "name": "",
          "type": "bool"
        }
      ],
      "stateMutability": "view",
      "type": "function",
      "constant": true
    },
    {
      "inputs": [
        {
          "internalType": "address",
          "name": "",
          "type": "address"
        }
      ],
      "name": "traders",
      "outputs": [
        {
          "internalType": "bool",
          "name": "",
          "type": "bool"
        }
      ],
      "stateMutability": "view",
      "type": "function",
      "constant": true
    },
    {
      "inputs": [],
      "name": "signUpBuyer",
      "outputs": [],
      "stateMutability": "nonpayable",
      "type": "function"
    },
    {
      "inputs": [],
      "name": "signUpTrader",
      "outputs": [],
      "stateMutability": "nonpayable",
      "type": "function"
    },
    {
      "inputs": [],
      "name": "signUpSupplier",
      "outputs": [],
      "stateMutability": "nonpayable",
      "type": "function"
    },
    {
      "inputs": [],
      "name": "signUpShippingLine",
      "outputs": [],
      "stateMutability": "nonpayable",
      "type": "function"
    },
    {
      "inputs": [
        {
          "internalType": "bytes32",
          "name": "hash",
          "type": "bytes32"
        },
        {
          "internalType": "uint256",
          "name": "amountToTrader",
          "type": "uint256"
        },
        {
          "internalType": "address",
          "name": "trader",
          "type": "address"
        },
        {
          "internalType": "uint256",
          "name": "percentAdvanceForTrader",
          "type": "uint256"
        },
        {
          "internalType": "string",
          "name": "commodity",
          "type": "string"
        },
        {
          "internalType": "uint256",
          "name": "quantity",
          "type": "uint256"
        },
        {
          "internalType": "enum SupplyChain.Unit",
          "name": "unit",
          "type": "uint8"
        }
      ],
      "name": "createOrder",
      "outputs": [],
      "stateMutability": "nonpayable",
      "type": "function"
    },
    {
      "inputs": [
        {
          "internalType": "bytes32",
          "name": "hash",
          "type": "bytes32"
        }
      ],
      "name": "acceptOrderTrader",
      "outputs": [],
      "stateMutability": "nonpayable",
      "type": "function"
    },
    {
      "inputs": [
        {
          "internalType": "bytes32",
          "name": "hash",
          "type": "bytes32"
        },
        {
          "internalType": "address",
          "name": "buyer",
          "type": "address"
        },
        {
          "internalType": "address",
          "name": "trader",
          "type": "address"
        }
      ],
      "name": "rejectOrderBuyerOrTrader",
      "outputs": [],
      "stateMutability": "nonpayable",
      "type": "function"
    },
    {
      "inputs": [
        {
          "internalType": "bytes32",
          "name": "hash",
          "type": "bytes32"
        },
        {
          "internalType": "uint256",
          "name": "amountToTrader",
          "type": "uint256"
        },
        {
          "internalType": "uint256",
          "name": "percentAdvanceForTrader",
          "type": "uint256"
        }
      ],
      "name": "revertOrderBuyerOrTrader",
      "outputs": [],
      "stateMutability": "nonpayable",
      "type": "function"
    },
    {
      "inputs": [
        {
          "internalType": "bytes32",
          "name": "hash",
          "type": "bytes32"
        }
      ],
      "name": "confirmOrderTraderToBuyer",
      "outputs": [],
      "stateMutability": "nonpayable",
      "type": "function"
    },
    {
      "inputs": [
        {
          "internalType": "bytes32",
          "name": "hash",
          "type": "bytes32"
        }
      ],
      "name": "getCommodityAndQuantity",
      "outputs": [
        {
          "internalType": "string",
          "name": "",
          "type": "string"
        },
        {
          "internalType": "uint256",
          "name": "",
          "type": "uint256"
        },
        {
          "internalType": "uint256",
          "name": "",
          "type": "uint256"
        },
        {
          "internalType": "enum SupplyChain.Unit",
          "name": "",
          "type": "uint8"
        }
      ],
      "stateMutability": "view",
      "type": "function",
      "constant": true
    },
    {
      "inputs": [
        {
          "internalType": "address",
          "name": "supplier",
          "type": "address"
        },
        {
          "internalType": "uint256",
          "name": "amountToSupplier",
          "type": "uint256"
        },
        {
          "internalType": "uint256",
          "name": "percentAdvanceForSupplier",
          "type": "uint256"
        },
        {
          "internalType": "bytes32",
          "name": "hash",
          "type": "bytes32"
        }
      ],
      "name": "addSupplierToOrder",
      "outputs": [],
      "stateMutability": "nonpayable",
      "type": "function"
    },
    {
      "inputs": [
        {
          "internalType": "bytes32",
          "name": "hash",
          "type": "bytes32"
        }
      ],
      "name": "acceptOrderSupplier",
      "outputs": [],
      "stateMutability": "nonpayable",
      "type": "function"
    },
    {
      "inputs": [
        {
          "internalType": "bytes32",
          "name": "hash",
          "type": "bytes32"
        },
        {
          "internalType": "address",
          "name": "supplier",
          "type": "address"
        }
      ],
      "name": "rejectOrderSupplierOrTrader",
      "outputs": [],
      "stateMutability": "nonpayable",
      "type": "function"
    },
    {
      "inputs": [
        {
          "internalType": "bytes32",
          "name": "hash",
          "type": "bytes32"
        },
        {
          "internalType": "uint256",
          "name": "amountToSupplier",
          "type": "uint256"
        },
        {
          "internalType": "uint256",
          "name": "percentAdvanceForSupplier",
          "type": "uint256"
        }
      ],
      "name": "revertOrderSupplierOrTrader",
      "outputs": [],
      "stateMutability": "nonpayable",
      "type": "function"
    },
    {
      "inputs": [
        {
          "internalType": "bytes32",
          "name": "hash",
          "type": "bytes32"
        }
      ],
      "name": "confirmOrderSupplierToTrader",
      "outputs": [],
      "stateMutability": "nonpayable",
      "type": "function"
    },
    {
      "inputs": [
        {
          "internalType": "bytes32",
          "name": "hash",
          "type": "bytes32"
        }
      ],
      "name": "getAmountToTrader",
      "outputs": [
        {
          "internalType": "uint256",
          "name": "",
          "type": "uint256"
        }
      ],
      "stateMutability": "view",
      "type": "function",
      "constant": true
    },
    {
      "inputs": [
        {
          "internalType": "bytes32",
          "name": "hash",
          "type": "bytes32"
        }
      ],
      "name": "getAmountToSupplier",
      "outputs": [
        {
          "internalType": "uint256",
          "name": "",
          "type": "uint256"
        }
      ],
      "stateMutability": "view",
      "type": "function",
      "constant": true
    },
    {
      "inputs": [
        {
          "internalType": "bytes32",
          "name": "hash",
          "type": "bytes32"
        }
      ],
      "name": "getAmountToShippingLine",
      "outputs": [
        {
          "internalType": "uint256",
          "name": "",
          "type": "uint256"
        }
      ],
      "stateMutability": "view",
      "type": "function",
      "constant": true
    },
    {
      "inputs": [
        {
          "internalType": "bytes32",
          "name": "hash",
          "type": "bytes32"
        }
      ],
      "name": "getSupplier",
      "outputs": [
        {
          "internalType": "address",
          "name": "",
          "type": "address"
        }
      ],
      "stateMutability": "view",
      "type": "function",
      "constant": true
    },
    {
      "inputs": [
        {
          "internalType": "bytes32",
          "name": "hash",
          "type": "bytes32"
        }
      ],
      "name": "getBuyer",
      "outputs": [
        {
          "internalType": "address",
          "name": "",
          "type": "address"
        }
      ],
      "stateMutability": "view",
      "type": "function",
      "constant": true
    },
    {
      "inputs": [
        {
          "internalType": "bytes32",
          "name": "hash",
          "type": "bytes32"
        }
      ],
      "name": "getTrader",
      "outputs": [
        {
          "internalType": "address",
          "name": "",
          "type": "address"
        }
      ],
      "stateMutability": "view",
      "type": "function",
      "constant": true
    },
    {
      "inputs": [
        {
          "internalType": "bytes32",
          "name": "hash",
          "type": "bytes32"
        }
      ],
      "name": "getShippingLine",
      "outputs": [
        {
          "internalType": "address",
          "name": "",
          "type": "address"
        }
      ],
      "stateMutability": "view",
      "type": "function",
      "constant": true
    },
    {
      "inputs": [
        {
          "internalType": "bytes32",
          "name": "hash",
          "type": "bytes32"
        }
      ],
      "name": "getAdvancePercentForTrader",
      "outputs": [
        {
          "internalType": "uint256",
          "name": "",
          "type": "uint256"
        }
      ],
      "stateMutability": "view",
      "type": "function",
      "constant": true
    },
    {
      "inputs": [
        {
          "internalType": "bytes32",
          "name": "hash",
          "type": "bytes32"
        }
      ],
      "name": "getAdvancePercentForSupplier",
      "outputs": [
        {
          "internalType": "uint256",
          "name": "",
          "type": "uint256"
        }
      ],
      "stateMutability": "view",
      "type": "function",
      "constant": true
    },
    {
      "inputs": [
        {
          "internalType": "bytes32",
          "name": "hash",
          "type": "bytes32"
        },
        {
          "internalType": "bytes32",
          "name": "update",
          "type": "bytes32"
        }
      ],
      "name": "updateStateBySupplier",
      "outputs": [],
      "stateMutability": "nonpayable",
      "type": "function"
    },
    {
      "inputs": [
        {
          "internalType": "bytes32",
          "name": "hash",
          "type": "bytes32"
        },
        {
          "internalType": "bytes32",
          "name": "update",
          "type": "bytes32"
        }
      ],
      "name": "updateStateByBuyer",
      "outputs": [],
      "stateMutability": "nonpayable",
      "type": "function"
    },
    {
      "inputs": [
        {
          "internalType": "bytes32",
          "name": "hash",
          "type": "bytes32"
        },
        {
          "internalType": "bytes32",
          "name": "update",
          "type": "bytes32"
        }
      ],
      "name": "updateStateByTrader",
      "outputs": [],
      "stateMutability": "nonpayable",
      "type": "function"
    },
    {
      "inputs": [
        {
          "internalType": "bytes32",
          "name": "hash",
          "type": "bytes32"
        }
      ],
      "name": "getState",
      "outputs": [
        {
          "internalType": "enum SupplyChain.State",
          "name": "",
          "type": "uint8"
        }
      ],
      "stateMutability": "view",
      "type": "function",
      "constant": true
    },
    {
      "inputs": [
        {
          "internalType": "bytes32",
          "name": "hash",
          "type": "bytes32"
        },
        {
          "internalType": "string",
          "name": "BL",
          "type": "string"
        }
      ],
      "name": "uploadBL",
      "outputs": [],
      "stateMutability": "nonpayable",
      "type": "function"
    },
    {
      "inputs": [
        {
          "internalType": "bytes32",
          "name": "hash",
          "type": "bytes32"
        }
      ],
      "name": "ship",
      "outputs": [],
      "stateMutability": "nonpayable",
      "type": "function"
    },
    {
      "inputs": [
        {
          "internalType": "string",
          "name": "PL",
          "type": "string"
        },
        {
          "internalType": "string",
          "name": "invoice",
          "type": "string"
        },
        {
          "internalType": "uint256",
          "name": "finalQuantity",
          "type": "uint256"
        },
        {
          "internalType": "bytes32",
          "name": "hash",
          "type": "bytes32"
        }
      ],
      "name": "onProductionComplete",
      "outputs": [],
      "stateMutability": "nonpayable",
      "type": "function"
    },
    {
      "inputs": [
        {
          "internalType": "bytes32",
          "name": "hash",
          "type": "bytes32"
        }
      ],
      "name": "getDocumentsFromSupplier",
      "outputs": [
        {
          "internalType": "string",
          "name": "",
          "type": "string"
        },
        {
          "internalType": "string",
          "name": "",
          "type": "string"
        },
        {
          "internalType": "string",
          "name": "",
          "type": "string"
        }
      ],
      "stateMutability": "view",
      "type": "function",
      "constant": true
    },
    {
      "inputs": [
        {
          "internalType": "bytes32",
          "name": "hash",
          "type": "bytes32"
        }
      ],
      "name": "getDocumentsFromShippingLine",
      "outputs": [
        {
          "internalType": "string",
          "name": "",
          "type": "string"
        },
        {
          "internalType": "string",
          "name": "",
          "type": "string"
        },
        {
          "internalType": "string",
          "name": "",
          "type": "string"
        }
      ],
      "stateMutability": "view",
      "type": "function",
      "constant": true
    },
    {
      "inputs": [
        {
          "internalType": "string",
          "name": "invoice",
          "type": "string"
        },
        {
          "internalType": "string",
          "name": "PL",
          "type": "string"
        },
        {
          "internalType": "string",
          "name": "BL",
          "type": "string"
        },
        {
          "internalType": "bytes32",
          "name": "hash",
          "type": "bytes32"
        }
      ],
      "name": "updateDocumentsFromSupplier",
      "outputs": [],
      "stateMutability": "nonpayable",
      "type": "function"
    },
    {
      "inputs": [
        {
          "internalType": "bytes32",
          "name": "hash",
          "type": "bytes32"
        }
      ],
      "name": "getDocumentsFromTrader",
      "outputs": [
        {
          "internalType": "string",
          "name": "",
          "type": "string"
        },
        {
          "internalType": "string",
          "name": "",
          "type": "string"
        },
        {
          "internalType": "string",
          "name": "",
          "type": "string"
        }
      ],
      "stateMutability": "view",
      "type": "function",
      "constant": true
    },
    {
      "inputs": [],
      "name": "getHashesForBuyer",
      "outputs": [
        {
          "internalType": "bytes32[]",
          "name": "",
          "type": "bytes32[]"
        }
      ],
      "stateMutability": "view",
      "type": "function",
      "constant": true
    },
    {
      "inputs": [],
      "name": "getHashesForSupplier",
      "outputs": [
        {
          "internalType": "bytes32[]",
          "name": "",
          "type": "bytes32[]"
        }
      ],
      "stateMutability": "view",
      "type": "function",
      "constant": true
    },
    {
      "inputs": [],
      "name": "getHashesForTrader",
      "outputs": [
        {
          "internalType": "bytes32[]",
          "name": "",
          "type": "bytes32[]"
        }
      ],
      "stateMutability": "view",
      "type": "function",
      "constant": true
    },
    {
      "inputs": [],
      "name": "getHashesForShippingLine",
      "outputs": [
        {
          "internalType": "bytes32[]",
          "name": "",
          "type": "bytes32[]"
        }
      ],
      "stateMutability": "view",
      "type": "function",
      "constant": true
    },
    {
      "inputs": [
        {
          "internalType": "address",
          "name": "shippingLine",
          "type": "address"
        },
        {
          "internalType": "bytes32",
          "name": "hash",
          "type": "bytes32"
        }
      ],
      "name": "addShippingLineToOrder",
      "outputs": [],
      "stateMutability": "nonpayable",
      "type": "function"
    },
    {
      "inputs": [
        {
          "internalType": "bytes32",
          "name": "hash",
          "type": "bytes32"
        }
      ],
      "name": "acceptOrderShippingLine",
      "outputs": [],
      "stateMutability": "nonpayable",
      "type": "function"
    },
    {
      "inputs": [
        {
          "internalType": "bytes32",
          "name": "hash",
          "type": "bytes32"
        },
        {
          "internalType": "uint256",
          "name": "amountToShippingLine",
          "type": "uint256"
        }
      ],
      "name": "addAmountShippingLine",
      "outputs": [],
      "stateMutability": "nonpayable",
      "type": "function"
    },
    {
      "inputs": [
        {
          "internalType": "bytes32",
          "name": "hash",
          "type": "bytes32"
        },
        {
          "internalType": "address",
          "name": "shippingLine",
          "type": "address"
        }
      ],
      "name": "rejectOrderShippingLine",
      "outputs": [],
      "stateMutability": "nonpayable",
      "type": "function"
    },
    {
      "inputs": [
        {
          "internalType": "bytes32",
          "name": "hash",
          "type": "bytes32"
        },
        {
          "internalType": "uint256",
          "name": "amountToShippingLine",
          "type": "uint256"
        }
      ],
      "name": "revertOrderShippingLine",
      "outputs": [],
      "stateMutability": "nonpayable",
      "type": "function"
    },
    {
      "inputs": [
        {
          "internalType": "bytes32",
          "name": "hash",
          "type": "bytes32"
        }
      ],
      "name": "confirmOrderShippingLineToSupplier",
      "outputs": [],
      "stateMutability": "nonpayable",
      "type": "function"
    }
  ],
  "bytecode": "0x608060405234801561001057600080fd5b50614fcc806100206000396000f3fe608060405234801561001057600080fd5b50600436106102b85760003560e01c806397a993aa11610182578063d93a8dc1116100e9578063e6b5e2d3116100a2578063f19aae851161007c578063f19aae85146108c4578063f3953850146108e0578063f49ba3bf146108fc578063f70c05041461091a576102b8565b8063e6b5e2d31461085c578063e81fbda414610878578063e82cf51114610894576102b8565b8063d93a8dc114610798578063da1e79da146107b6578063da5c2078146107c0578063dc24de70146107f0578063dcc2c89614610822578063e69cd3ea14610840576102b8565b8063c2e90de21161013b578063c2e90de2146106dc578063c4c9cdb5146106f8578063cb54368814610728578063cfc05a0d14610744578063d0f96ee214610760578063d13d98371461077c576102b8565b806397a993aa1461060c5780639aa6935e1461063c5780639e482e9614610658578063a1c2eb3914610688578063a70506d9146106a4578063c078a9bc146106c0576102b8565b80633f977e781161022657806371892637116101df57806371892637146105105780638323c89f1461052e57806385c5cf701461055e57806387cc5a1c1461057a5780638d0a360f146105aa57806392a88fa2146105dc576102b8565b80633f977e781461047a5780634b5e7af3146104965780635b72da4a146104b2578063600855b9146104bc5780636796264e146104d85780636b7aa95b146104f4576102b8565b806316dc15fe1161027857806316dc15fe1461037b578063174d70b9146103ab5780631c2604dd146103b55780632b5676d7146103e757806334872b691461041a5780633f0829331461044a576102b8565b8061f580146102bd57806298a2b4146102d957806309648a9d1461030957806309fdacf7146103395780630bdd96e31461035557806311933b651461035f575b600080fd5b6102d760048036038101906102d291906145ac565b61094a565b005b6102f360048036038101906102ee9190614667565b610a29565b60405161030091906146d5565b60405180910390f35b610323600480360381019061031e9190614667565b610a70565b6040516103309190614767565b60405180910390f35b610353600480360381019061034e9190614667565b610aa4565b005b61035d610b75565b005b61037960048036038101906103749190614667565b610bd7565b005b610395600480360381019061039091906147ae565b610ce8565b6040516103a291906147f6565b60405180910390f35b6103b3610d08565b005b6103cf60048036038101906103ca9190614667565b610d6a565b6040516103de93929190614899565b60405180910390f35b61040160048036038101906103fc9190614667565b610f8d565b6040516104119493929190614946565b60405180910390f35b610434600480360381019061042f9190614667565b61109b565b6040516104419190614992565b60405180910390f35b610464600480360381019061045f91906147ae565b6110c2565b60405161047191906147f6565b60405180910390f35b610494600480360381019061048f91906149ad565b6110e2565b005b6104b060048036038101906104ab9190614a19565b6111b8565b005b6104ba611323565b005b6104d660048036038101906104d19190614a59565b611385565b005b6104f260048036038101906104ed9190614667565b611549565b005b61050e60048036038101906105099190614a99565b61161a565b005b6105186116e9565b6040516105259190614bf6565b60405180910390f35b61054860048036038101906105439190614667565b611786565b60405161055591906146d5565b60405180910390f35b61057860048036038101906105739190614c18565b6117cd565b005b610594600480360381019061058f9190614667565b61198d565b6040516105a191906146d5565b60405180910390f35b6105c460048036038101906105bf9190614667565b6119d4565b6040516105d393929190614899565b60405180910390f35b6105f660048036038101906105f191906147ae565b611bf8565b60405161060391906147f6565b60405180910390f35b610626600480360381019061062191906147ae565b611c18565b60405161063391906147f6565b60405180910390f35b61065660048036038101906106519190614c18565b611c38565b005b610672600480360381019061066d9190614667565b611df8565b60405161067f9190614992565b60405180910390f35b6106a2600480360381019061069d9190614a19565b611e1f565b005b6106be60048036038101906106b99190614667565b611ec5565b005b6106da60048036038101906106d59190614667565b611f96565b005b6106f660048036038101906106f19190614c6b565b612032565b005b610712600480360381019061070d9190614667565b612213565b60405161071f9190614992565b60405180910390f35b610742600480360381019061073d9190614cd0565b61223a565b005b61075e60048036038101906107599190614667565b612772565b005b61077a60048036038101906107759190614d8e565b612803565b005b61079660048036038101906107919190614a59565b6128ae565b005b6107a0612a32565b6040516107ad9190614bf6565b60405180910390f35b6107be612acf565b005b6107da60048036038101906107d59190614667565b612b31565b6040516107e791906146d5565b60405180910390f35b61080a60048036038101906108059190614667565b612b78565b60405161081993929190614899565b60405180910390f35b61082a613058565b6040516108379190614bf6565b60405180910390f35b61085a60048036038101906108559190614dea565b6130f5565b005b610876600480360381019061087191906149ad565b613300565b005b610892600480360381019061088d9190614667565b61348e565b005b6108ae60048036038101906108a99190614667565b61355f565b6040516108bb9190614992565b60405180910390f35b6108de60048036038101906108d991906149ad565b613586565b005b6108fa60048036038101906108f59190614e51565b6137ce565b005b610904613ae9565b6040516109119190614bf6565b60405180910390f35b610934600480360381019061092f9190614667565b613b86565b6040516109419190614992565b60405180910390f35b610952613bad565b600080600083815260200190815260200160002090506019601c81111561097c5761097b6146f0565b5b81600a0160009054906101000a900460ff16601c8111156109a05761099f6146f0565b5b146109aa57600080fd5b8481600b0190805190602001906109c2929190614339565b50838160070190805190602001906109db929190614339565b50828160060190805190602001906109f4929190614339565b50601a81600a0160006101000a81548160ff0219169083601c811115610a1d57610a1c6146f0565b5b02179055505050505050565b6000610a33613c05565b60008083815260200190815260200160002060000160009054906101000a900473ffffffffffffffffffffffffffffffffffffffff169050919050565b6000610a7a613cb1565b600080838152602001908152602001600020600a0160009054906101000a900460ff169050919050565b610aac613e05565b600080600083815260200190815260200160002090506006601c811115610ad657610ad56146f0565b5b81600a0160009054906101000a900460ff16601c811115610afa57610af96146f0565b5b1480610b3b57506008601c811115610b1557610b146146f0565b5b81600a0160009054906101000a900460ff16601c811115610b3957610b386146f0565b5b145b610b4457600080fd5b600981600a0160006101000a81548160ff0219169083601c811115610b6c57610b6b6146f0565b5b02179055505050565b610b7d613e5d565b6001600b60003373ffffffffffffffffffffffffffffffffffffffff1673ffffffffffffffffffffffffffffffffffffffff16815260200190815260200160002060006101000a81548160ff021916908315150217905550565b610bdf613e05565b600080600083815260200190815260200160002090506013601c811115610c0957610c086146f0565b5b81600a0160009054906101000a900460ff16601c811115610c2d57610c2c6146f0565b5b1480610c6e57506014601c811115610c4857610c476146f0565b5b81600a0160009054906101000a900460ff16601c811115610c6c57610c6b6146f0565b5b145b80610cae57506011601c811115610c8857610c876146f0565b5b81600a0160009054906101000a900460ff16601c811115610cac57610cab6146f0565b5b145b610cb757600080fd5b601681600a0160006101000a81548160ff0219169083601c811115610cdf57610cde6146f0565b5b02179055505050565b600a6020528060005260406000206000915054906101000a900460ff1681565b610d10613e5d565b6001600a60003373ffffffffffffffffffffffffffffffffffffffff1673ffffffffffffffffffffffffffffffffffffffff16815260200190815260200160002060006101000a81548160ff021916908315150217905550565b6060806060610d77613fb8565b600080600086815260200190815260200160002090506016601c811115610da157610da06146f0565b5b81600a0160009054906101000a900460ff16601c811115610dc557610dc46146f0565b5b14610dcf57600080fd5b806007018160060182600b01828054610de790614ed3565b80601f0160208091040260200160405190810160405280929190818152602001828054610e1390614ed3565b8015610e605780601f10610e3557610100808354040283529160200191610e60565b820191906000526020600020905b815481529060010190602001808311610e4357829003601f168201915b50505050509250818054610e7390614ed3565b80601f0160208091040260200160405190810160405280929190818152602001828054610e9f90614ed3565b8015610eec5780601f10610ec157610100808354040283529160200191610eec565b820191906000526020600020905b815481529060010190602001808311610ecf57829003601f168201915b50505050509150808054610eff90614ed3565b80601f0160208091040260200160405190810160405280929190818152602001828054610f2b90614ed3565b8015610f785780601f10610f4d57610100808354040283529160200191610f78565b820191906000526020600020905b815481529060010190602001808311610f5b57829003601f168201915b50505050509050935093509350509193909250565b60606000806000610f9c613cb1565b600080868152602001908152602001600020600c01600080878152602001908152602001600020600d0154600080888152602001908152602001600020600e0154600080898152602001908152602001600020600f0160149054906101000a900460ff1683805461100c90614ed3565b80601f016020809104026020016040519081016040528092919081815260200182805461103890614ed3565b80156110855780601f1061105a57610100808354040283529160200191611085565b820191906000526020600020905b81548152906001019060200180831161106857829003601f168201915b5050505050935093509350935093509193509193565b60006110a5614010565b600080838152602001908152602001600020600301549050919050565b600c6020528060005260406000206000915054906101000a900460ff1681565b6110ea613bad565b6040518060400160405280601981526020017f446f63756d656e747356657269666965644279547261646572000000000000008152508051906020012081036111b457600080600084815260200190815260200160002090506018601c811115611157576111566146f0565b5b81600a0160009054906101000a900460ff16601c81111561117b5761117a6146f0565b5b1461118557600080fd5b601981600a0160006101000a81548160ff0219169083601c8111156111ad576111ac6146f0565b5b0217905550505b5050565b6111c06140bc565b806111ca81614168565b600080600085815260200190815260200160002090506012601c8111156111f4576111f36146f0565b5b81600a0160009054906101000a900460ff16601c811115611218576112176146f0565b5b148061125957506013601c811115611233576112326146f0565b5b81600a0160009054906101000a900460ff16601c811115611257576112566146f0565b5b145b8061129957506011601c811115611273576112726146f0565b5b81600a0160009054906101000a900460ff16601c811115611297576112966146f0565b5b145b6112a257600080fd5b8281600501819055506012601c8111156112bf576112be6146f0565b5b81600a0160009054906101000a900460ff16601c8111156112e3576112e26146f0565b5b146112ef5760126112f2565b60135b81600a0160006101000a81548160ff0219169083601c811115611318576113176146f0565b5b021790555050505050565b61132b613e5d565b6001600c60003373ffffffffffffffffffffffffffffffffffffffff1673ffffffffffffffffffffffffffffffffffffffff16815260200190815260200160002060006101000a81548160ff021916908315150217905550565b61138d6140bc565b600080600084815260200190815260200160002090506010601c8111156113b7576113b66146f0565b5b81600a0160009054906101000a900460ff16601c8111156113db576113da6146f0565b5b148061141c57506012601c8111156113f6576113f56146f0565b5b81600a0160009054906101000a900460ff16601c81111561141a576114196146f0565b5b145b8061145c57506013601c811115611436576114356146f0565b5b81600a0160009054906101000a900460ff16601c81111561145a576114596146f0565b5b145b8061149c57506011601c811115611476576114756146f0565b5b81600a0160009054906101000a900460ff16601c81111561149a576114996146f0565b5b145b6114a557600080fd5b601581600a0160006101000a81548160ff0219169083601c8111156114cd576114cc6146f0565b5b0217905550600760008373ffffffffffffffffffffffffffffffffffffffff1673ffffffffffffffffffffffffffffffffffffffff16815260200190815260200160002060086000858152602001908152602001600020548154811061153657611535614f04565b5b9060005260206000200160009055505050565b611551613bad565b600080600083815260200190815260200160002090506001601c81111561157b5761157a6146f0565b5b81600a0160009054906101000a900460ff16601c81111561159f5761159e6146f0565b5b14806115e057506003601c8111156115ba576115b96146f0565b5b81600a0160009054906101000a900460ff16601c8111156115de576115dd6146f0565b5b145b6115e957600080fd5b600481600a0160006101000a81548160ff0219169083601c811115611611576116106146f0565b5b02179055505050565b611622613e05565b60008060008381526020019081526020016000209050600e601c81111561164c5761164b6146f0565b5b81600a0160009054906101000a900460ff16601c8111156116705761166f6146f0565b5b1461167a57600080fd5b600f81600a0160006101000a81548160ff0219169083601c8111156116a2576116a16146f0565b5b0217905550848160070190805190602001906116bf929190614339565b508381600b0190805190602001906116d8929190614339565b508281600e01819055505050505050565b60606116f3613e05565b600360003373ffffffffffffffffffffffffffffffffffffffff1673ffffffffffffffffffffffffffffffffffffffff16815260200190815260200160002080548060200260200160405190810160405280929190818152602001828054801561177c57602002820191906000526020600020905b815481526020019060010190808311611768575b5050505050905090565b6000611790613e05565b600080838152602001908152602001600020600f0160009054906101000a900473ffffffffffffffffffffffffffffffffffffffff169050919050565b6117d5614178565b806117df81614224565b826117e981614168565b600080600087815260200190815260200160002090506006601c811115611813576118126146f0565b5b81600a0160009054906101000a900460ff16601c811115611837576118366146f0565b5b148061187857506007601c811115611852576118516146f0565b5b81600a0160009054906101000a900460ff16601c811115611876576118756146f0565b5b145b806118b857506008601c811115611892576118916146f0565b5b81600a0160009054906101000a900460ff16601c8111156118b6576118b56146f0565b5b145b6118c157600080fd5b8481600401819055508381600901819055506008601c8111156118e7576118e66146f0565b5b81600a0160009054906101000a900460ff16601c81111561190b5761190a6146f0565b5b148061194c57506006601c811115611926576119256146f0565b5b81600a0160009054906101000a900460ff16601c81111561194a576119496146f0565b5b145b61195757600861195a565b60075b81600a0160006101000a81548160ff0219169083601c8111156119805761197f6146f0565b5b0217905550505050505050565b6000611997614235565b60008083815260200190815260200160002060020160009054906101000a900473ffffffffffffffffffffffffffffffffffffffff169050919050565b60608060606119e1613bad565b600080600086815260200190815260200160002090506018601c811115611a0b57611a0a6146f0565b5b81600a0160009054906101000a900460ff16601c811115611a2f57611a2e6146f0565b5b1015611a3a57600080fd5b806007018160060182600b01828054611a5290614ed3565b80601f0160208091040260200160405190810160405280929190818152602001828054611a7e90614ed3565b8015611acb5780601f10611aa057610100808354040283529160200191611acb565b820191906000526020600020905b815481529060010190602001808311611aae57829003601f168201915b50505050509250818054611ade90614ed3565b80601f0160208091040260200160405190810160405280929190818152602001828054611b0a90614ed3565b8015611b575780601f10611b2c57610100808354040283529160200191611b57565b820191906000526020600020905b815481529060010190602001808311611b3a57829003601f168201915b50505050509150808054611b6a90614ed3565b80601f0160208091040260200160405190810160405280929190818152602001828054611b9690614ed3565b8015611be35780601f10611bb857610100808354040283529160200191611be3565b820191906000526020600020905b815481529060010190602001808311611bc657829003601f168201915b50505050509050935093509350509193909250565b600b6020528060005260406000206000915054906101000a900460ff1681565b60096020528060005260406000206000915054906101000a900460ff1681565b611c40614010565b80611c4a81614224565b82611c5481614168565b600080600087815260200190815260200160002090506001601c811115611c7e57611c7d6146f0565b5b81600a0160009054906101000a900460ff16601c811115611ca257611ca16146f0565b5b1480611ce357506003601c811115611cbd57611cbc6146f0565b5b81600a0160009054906101000a900460ff16601c811115611ce157611ce06146f0565b5b145b80611d2357506002601c811115611cfd57611cfc6146f0565b5b81600a0160009054906101000a900460ff16601c811115611d2157611d206146f0565b5b145b611d2c57600080fd5b8481600301819055508381600801819055506003601c811115611d5257611d516146f0565b5b81600a0160009054906101000a900460ff16601c811115611d7657611d756146f0565b5b1480611db757506001601c811115611d9157611d906146f0565b5b81600a0160009054906101000a900460ff16601c811115611db557611db46146f0565b5b145b611dc2576003611dc5565b60025b81600a0160006101000a81548160ff0219169083601c811115611deb57611dea6146f0565b5b0217905550505050505050565b6000611e02614178565b600080838152602001908152602001600020600901549050919050565b611e27613fb8565b80611e3181614168565b600080600085815260200190815260200160002090506010601c811115611e5b57611e5a6146f0565b5b81600a0160009054906101000a900460ff16601c811115611e7f57611e7e6146f0565b5b14611e8957600080fd5b828160050181905550601181600a0160006101000a81548160ff0219169083601c811115611eba57611eb96146f0565b5b021790555050505050565b611ecd613bad565b600080600083815260200190815260200160002090506007601c811115611ef757611ef66146f0565b5b81600a0160009054906101000a900460ff16601c811115611f1b57611f1a6146f0565b5b1480611f5c57506009601c811115611f3657611f356146f0565b5b81600a0160009054906101000a900460ff16601c811115611f5a57611f596146f0565b5b145b611f6557600080fd5b600b81600a0160006101000a81548160ff0219169083601c811115611f8d57611f8c6146f0565b5b02179055505050565b611f9e613fb8565b6017601c811115611fb257611fb16146f0565b5b600080838152602001908152602001600020600a0160009054906101000a900460ff16601c811115611fe757611fe66146f0565b5b14611ff157600080fd5b6018600080838152602001908152602001600020600a0160006101000a81548160ff0219169083601c81111561202a576120296146f0565b5b021790555050565b61203a613e05565b60008060008381526020019081526020016000209050600f601c811115612064576120636146f0565b5b81600a0160009054906101000a900460ff16601c811115612088576120876146f0565b5b14806120c957506015601c8111156120a3576120a26146f0565b5b81600a0160009054906101000a900460ff16601c8111156120c7576120c66146f0565b5b145b6120d257600080fd5b8281600f0160006101000a81548173ffffffffffffffffffffffffffffffffffffffff021916908373ffffffffffffffffffffffffffffffffffffffff160217905550600760008473ffffffffffffffffffffffffffffffffffffffff1673ffffffffffffffffffffffffffffffffffffffff1681526020019081526020016000208290806001815401808255809150506001900390600052602060002001600090919091909150556001600760008573ffffffffffffffffffffffffffffffffffffffff1673ffffffffffffffffffffffffffffffffffffffff168152602001908152602001600020805490506121ca9190614f62565b6008600084815260200190815260200160002081905550601081600a0160006101000a81548160ff0219169083601c811115612209576122086146f0565b5b0217905550505050565b600061221d6140bc565b600080838152602001908152602001600020600501549050919050565b6122426142e1565b8361224c81614224565b8661225681614168565b6000604051806102200160405280600073ffffffffffffffffffffffffffffffffffffffff1681526020018973ffffffffffffffffffffffffffffffffffffffff1681526020013373ffffffffffffffffffffffffffffffffffffffff1681526020018a81526020016000815260200160008152602001604051806020016040528060008152508152602001604051806020016040528060008152508152602001888152602001600081526020016001601c811115612318576123176146f0565b5b815260200160405180602001604052806000815250815260200187815260200186815260200160008152602001600073ffffffffffffffffffffffffffffffffffffffff168152602001856006811115612375576123746146f0565b5b8152509050806000808c815260200190815260200160002060008201518160000160006101000a81548173ffffffffffffffffffffffffffffffffffffffff021916908373ffffffffffffffffffffffffffffffffffffffff16021790555060208201518160010160006101000a81548173ffffffffffffffffffffffffffffffffffffffff021916908373ffffffffffffffffffffffffffffffffffffffff16021790555060408201518160020160006101000a81548173ffffffffffffffffffffffffffffffffffffffff021916908373ffffffffffffffffffffffffffffffffffffffff160217905550606082015181600301556080820151816004015560a0820151816005015560c082015181600601908051906020019061249c929190614339565b5060e08201518160070190805190602001906124b9929190614339565b506101008201518160080155610120820151816009015561014082015181600a0160006101000a81548160ff0219169083601c8111156124fc576124fb6146f0565b5b021790555061016082015181600b01908051906020019061251e929190614339565b5061018082015181600c01908051906020019061253c929190614339565b506101a082015181600d01556101c082015181600e01556101e082015181600f0160006101000a81548173ffffffffffffffffffffffffffffffffffffffff021916908373ffffffffffffffffffffffffffffffffffffffff16021790555061020082015181600f0160146101000a81548160ff021916908360068111156125c7576125c66146f0565b5b0217905550905050600160003373ffffffffffffffffffffffffffffffffffffffff1673ffffffffffffffffffffffffffffffffffffffff1681526020019081526020016000208a908060018154018082558091505060019003906000526020600020016000909190919091505560018060003373ffffffffffffffffffffffffffffffffffffffff1673ffffffffffffffffffffffffffffffffffffffff168152602001908152602001600020805490506126839190614f62565b600260008c815260200190815260200160002081905550600560008973ffffffffffffffffffffffffffffffffffffffff1673ffffffffffffffffffffffffffffffffffffffff1681526020019081526020016000208a90806001815401808255809150506001900390600052602060002001600090919091909150556001600560008a73ffffffffffffffffffffffffffffffffffffffff1673ffffffffffffffffffffffffffffffffffffffff1681526020019081526020016000208054905061274f9190614f62565b600660008c81526020019081526020016000208190555050505050505050505050565b61277a613fb8565b600080600083815260200190815260200160002090506012601c8111156127a4576127a36146f0565b5b81600a0160009054906101000a900460ff16601c8111156127c8576127c76146f0565b5b146127d257600080fd5b601481600a0160006101000a81548160ff0219169083601c8111156127fa576127f96146f0565b5b02179055505050565b61280b613fb8565b600080600084815260200190815260200160002090506016601c811115612835576128346146f0565b5b81600a0160009054906101000a900460ff16601c811115612859576128586146f0565b5b1461286357600080fd5b8181600601908051906020019061287b929190614339565b50601781600a0160006101000a81548160ff0219169083601c8111156128a4576128a36146f0565b5b0217905550505050565b6128b6614178565b600080600084815260200190815260200160002090506006601c8111156128e0576128df6146f0565b5b81600a0160009054906101000a900460ff16601c811115612904576129036146f0565b5b148061294557506008601c81111561291f5761291e6146f0565b5b81600a0160009054906101000a900460ff16601c811115612943576129426146f0565b5b145b8061298557506007601c81111561295f5761295e6146f0565b5b81600a0160009054906101000a900460ff16601c811115612983576129826146f0565b5b145b61298e57600080fd5b600a81600a0160006101000a81548160ff0219169083601c8111156129b6576129b56146f0565b5b0217905550600360008373ffffffffffffffffffffffffffffffffffffffff1673ffffffffffffffffffffffffffffffffffffffff168152602001908152602001600020600460008581526020019081526020016000205481548110612a1f57612a1e614f04565b5b9060005260206000200160009055505050565b6060612a3c6142e1565b600160003373ffffffffffffffffffffffffffffffffffffffff1673ffffffffffffffffffffffffffffffffffffffff168152602001908152602001600020805480602002602001604051908101604052809291908181526020018280548015612ac557602002820191906000526020600020905b815481526020019060010190808311612ab1575b5050505050905090565b612ad7613e5d565b6001600960003373ffffffffffffffffffffffffffffffffffffffff1673ffffffffffffffffffffffffffffffffffffffff16815260200190815260200160002060006101000a81548160ff021916908315150217905550565b6000612b3b613cb1565b60008083815260200190815260200160002060010160009054906101000a900473ffffffffffffffffffffffffffffffffffffffff169050919050565b6060806060612b856142e1565b6000806000868152602001908152602001600020604051806102200160405290816000820160009054906101000a900473ffffffffffffffffffffffffffffffffffffffff1673ffffffffffffffffffffffffffffffffffffffff1673ffffffffffffffffffffffffffffffffffffffff1681526020016001820160009054906101000a900473ffffffffffffffffffffffffffffffffffffffff1673ffffffffffffffffffffffffffffffffffffffff1673ffffffffffffffffffffffffffffffffffffffff1681526020016002820160009054906101000a900473ffffffffffffffffffffffffffffffffffffffff1673ffffffffffffffffffffffffffffffffffffffff1673ffffffffffffffffffffffffffffffffffffffff168152602001600382015481526020016004820154815260200160058201548152602001600682018054612cd590614ed3565b80601f0160208091040260200160405190810160405280929190818152602001828054612d0190614ed3565b8015612d4e5780601f10612d2357610100808354040283529160200191612d4e565b820191906000526020600020905b815481529060010190602001808311612d3157829003601f168201915b50505050508152602001600782018054612d6790614ed3565b80601f0160208091040260200160405190810160405280929190818152602001828054612d9390614ed3565b8015612de05780601f10612db557610100808354040283529160200191612de0565b820191906000526020600020905b815481529060010190602001808311612dc357829003601f168201915b505050505081526020016008820154815260200160098201548152602001600a820160009054906101000a900460ff16601c811115612e2257612e216146f0565b5b601c811115612e3457612e336146f0565b5b8152602001600b82018054612e4890614ed3565b80601f0160208091040260200160405190810160405280929190818152602001828054612e7490614ed3565b8015612ec15780601f10612e9657610100808354040283529160200191612ec1565b820191906000526020600020905b815481529060010190602001808311612ea457829003601f168201915b50505050508152602001600c82018054612eda90614ed3565b80601f0160208091040260200160405190810160405280929190818152602001828054612f0690614ed3565b8015612f535780601f10612f2857610100808354040283529160200191612f53565b820191906000526020600020905b815481529060010190602001808311612f3657829003601f168201915b50505050508152602001600d8201548152602001600e8201548152602001600f820160009054906101000a900473ffffffffffffffffffffffffffffffffffffffff1673ffffffffffffffffffffffffffffffffffffffff1673ffffffffffffffffffffffffffffffffffffffff168152602001600f820160149054906101000a900460ff166006811115612feb57612fea6146f0565b5b6006811115612ffd57612ffc6146f0565b5b815250509050601a601c811115613017576130166146f0565b5b816101400151601c81111561302f5761302e6146f0565b5b101561303a57600080fd5b8060e001518160c00151826101600151935093509350509193909250565b6060613062613bad565b600560003373ffffffffffffffffffffffffffffffffffffffff1673ffffffffffffffffffffffffffffffffffffffff1681526020019081526020016000208054806020026020016040519081016040528092919081815260200182805480156130eb57602002820191906000526020600020905b8154815260200190600101908083116130d7575b5050505050905090565b6130fd613bad565b8161310781614224565b8361311181614168565b600080600085815260200190815260200160002090506005601c81111561313b5761313a6146f0565b5b81600a0160009054906101000a900460ff16601c81111561315f5761315e6146f0565b5b14806131a05750600a601c81111561317a576131796146f0565b5b81600a0160009054906101000a900460ff16601c81111561319e5761319d6146f0565b5b145b6131a957600080fd5b858160040181905550848160090181905550868160000160006101000a81548173ffffffffffffffffffffffffffffffffffffffff021916908373ffffffffffffffffffffffffffffffffffffffff160217905550600360008873ffffffffffffffffffffffffffffffffffffffff1673ffffffffffffffffffffffffffffffffffffffff1681526020019081526020016000208490806001815401808255809150506001900390600052602060002001600090919091909150556001600360008973ffffffffffffffffffffffffffffffffffffffff1673ffffffffffffffffffffffffffffffffffffffff168152602001908152602001600020805490506132b39190614f62565b6004600086815260200190815260200160002081905550600681600a0160006101000a81548160ff0219169083601c8111156132f2576132f16146f0565b5b021790555050505050505050565b6133086142e1565b600080600084815260200190815260200160002090506040518060400160405280601881526020017f446f63756d656e747356657269666965644279427579657200000000000000008152508051906020012082036133d557601a601c811115613375576133746146f0565b5b81600a0160009054906101000a900460ff16601c811115613399576133986146f0565b5b146133a357600080fd5b601b81600a0160006101000a81548160ff0219169083601c8111156133cb576133ca6146f0565b5b0217905550613489565b6040518060400160405280600681526020017f436c6f736564000000000000000000000000000000000000000000000000000081525080519060200120820361348857601b601c81111561342c5761342b6146f0565b5b81600a0160009054906101000a900460ff16601c8111156134505761344f6146f0565b5b1461345a57600080fd5b601c81600a0160006101000a81548160ff0219169083601c811115613482576134816146f0565b5b02179055505b5b505050565b6134966142e1565b600080600083815260200190815260200160002090506002601c8111156134c0576134bf6146f0565b5b81600a0160009054906101000a900460ff16601c8111156134e4576134e36146f0565b5b148061352557506004601c8111156134ff576134fe6146f0565b5b81600a0160009054906101000a900460ff16601c811115613523576135226146f0565b5b145b61352e57600080fd5b600581600a0160006101000a81548160ff0219169083601c811115613556576135556146f0565b5b02179055505050565b6000613569614178565b600080838152602001908152602001600020600401549050919050565b61358e613e05565b60008060008481526020019081526020016000209050600b601c8111156135b8576135b76146f0565b5b81600a0160009054906101000a900460ff16601c8111156135dc576135db6146f0565b5b10156135e757600080fd5b6040518060400160405280600f81526020017f4d6174657269616c536f7572636564000000000000000000000000000000000081525080519060200120820361365c57600c81600a0160006101000a81548160ff0219169083601c811115613652576136516146f0565b5b02179055506137c9565b6040518060400160405280600981526020017f496e466163746f727900000000000000000000000000000000000000000000008152508051906020012082036136d157600d81600a0160006101000a81548160ff0219169083601c8111156136c7576136c66146f0565b5b02179055506137c8565b6040518060400160405280600e81526020017f5175616c697479436f6e74726f6c0000000000000000000000000000000000008152508051906020012082036137c757600c601c811115613728576137276146f0565b5b81600a0160009054906101000a900460ff16601c81111561374c5761374b6146f0565b5b141580156137905750600b601c811115613769576137686146f0565b5b81600a0160009054906101000a900460ff16601c81111561378d5761378c6146f0565b5b14155b61379957600080fd5b600e81600a0160006101000a81548160ff0219169083601c8111156137c1576137c06146f0565b5b02179055505b5b5b505050565b6137d6614010565b600080600085815260200190815260200160002090506001601c811115613800576137ff6146f0565b5b81600a0160009054906101000a900460ff16601c811115613824576138236146f0565b5b148061386557506002601c81111561383f5761383e6146f0565b5b81600a0160009054906101000a900460ff16601c811115613863576138626146f0565b5b145b806138a557506003601c81111561387f5761387e6146f0565b5b81600a0160009054906101000a900460ff16601c8111156138a3576138a26146f0565b5b145b6138ae57600080fd5b600080858152602001908152602001600020600080820160006101000a81549073ffffffffffffffffffffffffffffffffffffffff02191690556001820160006101000a81549073ffffffffffffffffffffffffffffffffffffffff02191690556002820160006101000a81549073ffffffffffffffffffffffffffffffffffffffff021916905560038201600090556004820160009055600582016000905560068201600061395e91906143bf565b60078201600061396e91906143bf565b60088201600090556009820160009055600a820160006101000a81549060ff0219169055600b820160006139a291906143bf565b600c820160006139b291906143bf565b600d820160009055600e820160009055600f820160006101000a81549073ffffffffffffffffffffffffffffffffffffffff0219169055600f820160146101000a81549060ff02191690555050600160008473ffffffffffffffffffffffffffffffffffffffff1673ffffffffffffffffffffffffffffffffffffffff168152602001908152602001600020600260008681526020019081526020016000205481548110613a6357613a62614f04565b5b9060005260206000200160009055600560008373ffffffffffffffffffffffffffffffffffffffff1673ffffffffffffffffffffffffffffffffffffffff168152602001908152602001600020600660008681526020019081526020016000205481548110613ad557613ad4614f04565b5b906000526020600020016000905550505050565b6060613af3613fb8565b600760003373ffffffffffffffffffffffffffffffffffffffff1673ffffffffffffffffffffffffffffffffffffffff168152602001908152602001600020805480602002602001604051908101604052809291908181526020018280548015613b7c57602002820191906000526020600020905b815481526020019060010190808311613b68575b5050505050905090565b6000613b90614010565b600080838152602001908152602001600020600801549050919050565b600b60003373ffffffffffffffffffffffffffffffffffffffff1673ffffffffffffffffffffffffffffffffffffffff16815260200190815260200160002060009054906101000a900460ff16613c0357600080fd5b565b600c60003373ffffffffffffffffffffffffffffffffffffffff1673ffffffffffffffffffffffffffffffffffffffff16815260200190815260200160002060009054906101000a900460ff1680613ca65750600b60003373ffffffffffffffffffffffffffffffffffffffff1673ffffffffffffffffffffffffffffffffffffffff16815260200190815260200160002060009054906101000a900460ff165b613caf57600080fd5b565b600a60003373ffffffffffffffffffffffffffffffffffffffff1673ffffffffffffffffffffffffffffffffffffffff16815260200190815260200160002060009054906101000a900460ff1680613d525750600b60003373ffffffffffffffffffffffffffffffffffffffff1673ffffffffffffffffffffffffffffffffffffffff16815260200190815260200160002060009054906101000a900460ff165b80613da65750600c60003373ffffffffffffffffffffffffffffffffffffffff1673ffffffffffffffffffffffffffffffffffffffff16815260200190815260200160002060009054906101000a900460ff165b80613dfa5750600960003373ffffffffffffffffffffffffffffffffffffffff1673ffffffffffffffffffffffffffffffffffffffff16815260200190815260200160002060009054906101000a900460ff165b613e0357600080fd5b565b600a60003373ffffffffffffffffffffffffffffffffffffffff1673ffffffffffffffffffffffffffffffffffffffff16815260200190815260200160002060009054906101000a900460ff16613e5b57600080fd5b565b600b60003373ffffffffffffffffffffffffffffffffffffffff1673ffffffffffffffffffffffffffffffffffffffff16815260200190815260200160002060009054906101000a900460ff16158015613f015750600a60003373ffffffffffffffffffffffffffffffffffffffff1673ffffffffffffffffffffffffffffffffffffffff16815260200190815260200160002060009054906101000a900460ff16155b8015613f575750600960003373ffffffffffffffffffffffffffffffffffffffff1673ffffffffffffffffffffffffffffffffffffffff16815260200190815260200160002060009054906101000a900460ff16155b8015613fad5750600c60003373ffffffffffffffffffffffffffffffffffffffff1673ffffffffffffffffffffffffffffffffffffffff16815260200190815260200160002060009054906101000a900460ff16155b613fb657600080fd5b565b600c60003373ffffffffffffffffffffffffffffffffffffffff1673ffffffffffffffffffffffffffffffffffffffff16815260200190815260200160002060009054906101000a900460ff1661400e57600080fd5b565b600b60003373ffffffffffffffffffffffffffffffffffffffff1673ffffffffffffffffffffffffffffffffffffffff16815260200190815260200160002060009054906101000a900460ff16806140b15750600960003373ffffffffffffffffffffffffffffffffffffffff1673ffffffffffffffffffffffffffffffffffffffff16815260200190815260200160002060009054906101000a900460ff165b6140ba57600080fd5b565b600a60003373ffffffffffffffffffffffffffffffffffffffff1673ffffffffffffffffffffffffffffffffffffffff16815260200190815260200160002060009054906101000a900460ff168061415d5750600c60003373ffffffffffffffffffffffffffffffffffffffff1673ffffffffffffffffffffffffffffffffffffffff16815260200190815260200160002060009054906101000a900460ff165b61416657600080fd5b565b6000811161417557600080fd5b50565b600a60003373ffffffffffffffffffffffffffffffffffffffff1673ffffffffffffffffffffffffffffffffffffffff16815260200190815260200160002060009054906101000a900460ff16806142195750600b60003373ffffffffffffffffffffffffffffffffffffffff1673ffffffffffffffffffffffffffffffffffffffff16815260200190815260200160002060009054906101000a900460ff165b61422257600080fd5b565b600081101561423257600080fd5b50565b600c60003373ffffffffffffffffffffffffffffffffffffffff1673ffffffffffffffffffffffffffffffffffffffff16815260200190815260200160002060009054906101000a900460ff16806142d65750600b60003373ffffffffffffffffffffffffffffffffffffffff1673ffffffffffffffffffffffffffffffffffffffff16815260200190815260200160002060009054906101000a900460ff165b6142df57600080fd5b565b600960003373ffffffffffffffffffffffffffffffffffffffff1673ffffffffffffffffffffffffffffffffffffffff16815260200190815260200160002060009054906101000a900460ff1661433757600080fd5b565b82805461434590614ed3565b90600052602060002090601f01602090048101928261436757600085556143ae565b82601f1061438057805160ff19168380011785556143ae565b828001600101855582156143ae579182015b828111156143ad578251825591602001919060010190614392565b5b5090506143bb91906143ff565b5090565b5080546143cb90614ed3565b6000825580601f106143dd57506143fc565b601f0160209004906000526020600020908101906143fb91906143ff565b5b50565b5b80821115614418576000816000905550600101614400565b5090565b6000604051905090565b600080fd5b600080fd5b600080fd5b600080fd5b6000601f19601f8301169050919050565b7f4e487b7100000000000000000000000000000000000000000000000000000000600052604160045260246000fd5b6144838261443a565b810181811067ffffffffffffffff821117156144a2576144a161444b565b5b80604052505050565b60006144b561441c565b90506144c1828261447a565b919050565b600067ffffffffffffffff8211156144e1576144e061444b565b5b6144ea8261443a565b9050602081019050919050565b82818337600083830152505050565b6000614519614514846144c6565b6144ab565b90508281526020810184848401111561453557614534614435565b5b6145408482856144f7565b509392505050565b600082601f83011261455d5761455c614430565b5b813561456d848260208601614506565b91505092915050565b6000819050919050565b61458981614576565b811461459457600080fd5b50565b6000813590506145a681614580565b92915050565b600080600080608085870312156145c6576145c5614426565b5b600085013567ffffffffffffffff8111156145e4576145e361442b565b5b6145f087828801614548565b945050602085013567ffffffffffffffff8111156146115761461061442b565b5b61461d87828801614548565b935050604085013567ffffffffffffffff81111561463e5761463d61442b565b5b61464a87828801614548565b925050606061465b87828801614597565b91505092959194509250565b60006020828403121561467d5761467c614426565b5b600061468b84828501614597565b91505092915050565b600073ffffffffffffffffffffffffffffffffffffffff82169050919050565b60006146bf82614694565b9050919050565b6146cf816146b4565b82525050565b60006020820190506146ea60008301846146c6565b92915050565b7f4e487b7100000000000000000000000000000000000000000000000000000000600052602160045260246000fd5b601d81106147305761472f6146f0565b5b50565b60008190506147418261471f565b919050565b600061475182614733565b9050919050565b61476181614746565b82525050565b600060208201905061477c6000830184614758565b92915050565b61478b816146b4565b811461479657600080fd5b50565b6000813590506147a881614782565b92915050565b6000602082840312156147c4576147c3614426565b5b60006147d284828501614799565b91505092915050565b60008115159050919050565b6147f0816147db565b82525050565b600060208201905061480b60008301846147e7565b92915050565b600081519050919050565b600082825260208201905092915050565b60005b8381101561484b578082015181840152602081019050614830565b8381111561485a576000848401525b50505050565b600061486b82614811565b614875818561481c565b935061488581856020860161482d565b61488e8161443a565b840191505092915050565b600060608201905081810360008301526148b38186614860565b905081810360208301526148c78185614860565b905081810360408301526148db8184614860565b9050949350505050565b6000819050919050565b6148f8816148e5565b82525050565b6007811061490f5761490e6146f0565b5b50565b6000819050614920826148fe565b919050565b600061493082614912565b9050919050565b61494081614925565b82525050565b600060808201905081810360008301526149608187614860565b905061496f60208301866148ef565b61497c60408301856148ef565b6149896060830184614937565b95945050505050565b60006020820190506149a760008301846148ef565b92915050565b600080604083850312156149c4576149c3614426565b5b60006149d285828601614597565b92505060206149e385828601614597565b9150509250929050565b6149f6816148e5565b8114614a0157600080fd5b50565b600081359050614a13816149ed565b92915050565b60008060408385031215614a3057614a2f614426565b5b6000614a3e85828601614597565b9250506020614a4f85828601614a04565b9150509250929050565b60008060408385031215614a7057614a6f614426565b5b6000614a7e85828601614597565b9250506020614a8f85828601614799565b9150509250929050565b60008060008060808587031215614ab357614ab2614426565b5b600085013567ffffffffffffffff811115614ad157614ad061442b565b5b614add87828801614548565b945050602085013567ffffffffffffffff811115614afe57614afd61442b565b5b614b0a87828801614548565b9350506040614b1b87828801614a04565b9250506060614b2c87828801614597565b91505092959194509250565b600081519050919050565b600082825260208201905092915050565b6000819050602082019050919050565b614b6d81614576565b82525050565b6000614b7f8383614b64565b60208301905092915050565b6000602082019050919050565b6000614ba382614b38565b614bad8185614b43565b9350614bb883614b54565b8060005b83811015614be9578151614bd08882614b73565b9750614bdb83614b8b565b925050600181019050614bbc565b5085935050505092915050565b60006020820190508181036000830152614c108184614b98565b905092915050565b600080600060608486031215614c3157614c30614426565b5b6000614c3f86828701614597565b9350506020614c5086828701614a04565b9250506040614c6186828701614a04565b9150509250925092565b60008060408385031215614c8257614c81614426565b5b6000614c9085828601614799565b9250506020614ca185828601614597565b9150509250929050565b60078110614cb857600080fd5b50565b600081359050614cca81614cab565b92915050565b600080600080600080600060e0888a031215614cef57614cee614426565b5b6000614cfd8a828b01614597565b9750506020614d0e8a828b01614a04565b9650506040614d1f8a828b01614799565b9550506060614d308a828b01614a04565b945050608088013567ffffffffffffffff811115614d5157614d5061442b565b5b614d5d8a828b01614548565b93505060a0614d6e8a828b01614a04565b92505060c0614d7f8a828b01614cbb565b91505092959891949750929550565b60008060408385031215614da557614da4614426565b5b6000614db385828601614597565b925050602083013567ffffffffffffffff811115614dd457614dd361442b565b5b614de085828601614548565b9150509250929050565b60008060008060808587031215614e0457614e03614426565b5b6000614e1287828801614799565b9450506020614e2387828801614a04565b9350506040614e3487828801614a04565b9250506060614e4587828801614597565b91505092959194509250565b600080600060608486031215614e6a57614e69614426565b5b6000614e7886828701614597565b9350506020614e8986828701614799565b9250506040614e9a86828701614799565b9150509250925092565b7f4e487b7100000000000000000000000000000000000000000000000000000000600052602260045260246000fd5b60006002820490506001821680614eeb57607f821691505b602082108103614efe57614efd614ea4565b5b50919050565b7f4e487b7100000000000000000000000000000000000000000000000000000000600052603260045260246000fd5b7f4e487b7100000000000000000000000000000000000000000000000000000000600052601160045260246000fd5b6000614f6d826148e5565b9150614f78836148e5565b925082821015614f8b57614f8a614f33565b5b82820390509291505056fea2646970667358221220b3482b80782d3ff503594d82bcb689ecce75e1cb441dc9a107b1522e6705077964736f6c634300080e0033",
  "immutableReferences": {},
  "source": "// SPDX-License-Identifier: MIT\npragma solidity >=0.4.22 <0.9.0;\n\ncontract SupplyChain {\n    enum State {\n        DefaultState,\n        Created,\n        RevertedTraderToBuyer,\n        RevertedBuyerToTrader,\n        ConfirmedTraderToBuyer,\n        AcceptedTrader,\n        FoundSupplier,\n        RevertedSupplierToTrader,\n        RevertedTraderToSupplier,\n        ConfirmedSupplierToTrader,\n        RejectedSupplier,\n        AcceptedSupplier,\n        MaterialSourced,\n        InFactory,\n        QualityControl,\n        ProductionCompleted,\n        FoundShippingLine,\n        AddedAmountShippingLine,\n        RevertedSupplierToShippingLine,\n        RevertedShippingLineToSupplier,\n        ConfirmedShippingLineToSupplier,\n        RejectedShippingLine,\n        AcceptedShippingLine,\n        BlUploaded,\n        Shipped,\n        DocumentsVerifiedByTrader,\n        DocumentsUpdatedByTrader,\n        DocumentsVerifiedByBuyer,\n        Closed\n    }\n\n    enum Unit {\n        piece,\n        yard,\n        metricTon,\n        litres,\n        kilogram,\n        barrel,\n        cubicMetre\n    }\n\n    struct Order {\n        address supplier;\n        address trader;\n        address buyer;\n        uint256 amountToTrader;\n        uint256 amountToSupplier;\n        uint256 amountToShippingLine;\n        string BL;\n        string PL;\n        uint256 percentAdvanceForTrader;\n        uint256 percentAdvanceForSupplier;\n        State state;\n        string invoice;\n        string commodity;\n        uint256 quantity;\n        uint256 finalQuantity;\n        address shippingLine;\n        Unit unit;\n    }\n\n    mapping(bytes32 => Order) private hashToOrder;\n    mapping(address => bytes32[]) private buyersToHashes;\n    mapping(bytes32 => uint256) private buyerHashesToIndexes;\n    mapping(address => bytes32[]) private suppliersToHashes;\n    mapping(bytes32 => uint256) private supplierHashesToIndexes;\n    mapping(address => bytes32[]) private tradersToHashes;\n    mapping(bytes32 => uint256) private traderHashesToIndexes;\n    mapping(address => bytes32[]) private shippingLinesToHashes;\n    mapping(bytes32 => uint256) private shippingLinesHashesToIndexes;\n    mapping(address => bool) public buyers;\n    mapping(address => bool) public suppliers;\n    mapping(address => bool) public traders;\n    mapping(address => bool) public shippingLines;\n\n    // done to reduce contract size\n    function _onlyTrader() private view {\n        require(traders[msg.sender]);\n    }\n\n    function _onlySupplier() private view {\n        require(suppliers[msg.sender]);\n    }\n\n    function _onlySupplierOrShippingLine() private view {\n        require(suppliers[msg.sender] || shippingLines[msg.sender]);\n    }\n\n    function _onlyUser() private view {\n        require(\n            suppliers[msg.sender] ||\n                traders[msg.sender] ||\n                shippingLines[msg.sender] ||\n                buyers[msg.sender]\n        );\n    }\n\n    function _notNegative(uint256 val) private pure {\n        require(val >= 0);\n    }\n\n    function _greaterThanZero(uint256 val) private pure {\n        require(val > 0);\n    }\n\n    function _canGetBuyer() private view {\n        require(shippingLines[msg.sender] || traders[msg.sender]);\n    }\n\n    function _onlySupplierOrTrader() private view {\n        require(suppliers[msg.sender] || traders[msg.sender]);\n    }\n\n    function _onlyBuyer() private view {\n        require(buyers[msg.sender]);\n    }\n\n    function _onlyShippingLine() private view {\n        require(shippingLines[msg.sender]);\n    }\n\n    function _onlyTraderOrShippingLine() private view {\n        require(shippingLines[msg.sender] || traders[msg.sender]);\n    }\n\n    function _onlyBuyerOrTrader() private view {\n        require(traders[msg.sender] || buyers[msg.sender]);\n    }\n\n    function _notAccountCreated() private view {\n        require(\n            !traders[msg.sender] &&\n                !suppliers[msg.sender] &&\n                !buyers[msg.sender] &&\n                !shippingLines[msg.sender]\n        );\n    }\n\n    modifier onlyTrader() {\n        _onlyTrader();\n        _;\n    }\n\n    modifier onlySupplier() {\n        _onlySupplier();\n        _;\n    }\n\n    modifier onlySupplierOrShippingLine() {\n        _onlySupplierOrShippingLine();\n        _;\n    }\n\n    modifier onlyUser() {\n        _onlyUser();\n        _;\n    }\n\n    modifier notNegative(uint256 val) {\n        _notNegative(val);\n        _;\n    }\n\n    modifier greaterThanZero(uint256 val) {\n        _greaterThanZero(val);\n        _;\n    }\n\n    modifier canGetBuyer() {\n        _canGetBuyer();\n        _;\n    }\n\n    modifier onlySupplierOrTrader() {\n        _onlySupplierOrTrader();\n        _;\n    }\n\n    modifier onlyBuyer() {\n        _onlyBuyer();\n        _;\n    }\n\n    modifier onlyShippingLine() {\n        _onlyShippingLine();\n        _;\n    }\n\n    modifier onlyTraderOrShippingLine() {\n        _onlyTraderOrShippingLine();\n        _;\n    }\n\n    modifier onlyBuyerOrTrader() {\n        _onlyBuyerOrTrader();\n        _;\n    }\n\n    modifier notAccountCreated() {\n        _notAccountCreated();\n        _;\n    }\n\n    function signUpBuyer() external notAccountCreated {\n        buyers[msg.sender] = true;\n    }\n\n    function signUpTrader() external notAccountCreated {\n        traders[msg.sender] = true;\n    }\n\n    function signUpSupplier() external notAccountCreated {\n        suppliers[msg.sender] = true;\n    }\n\n    function signUpShippingLine() external notAccountCreated {\n        shippingLines[msg.sender] = true;\n    }\n\n    function createOrder(\n        bytes32 hash,\n        uint256 amountToTrader, // in gwei\n        address trader,\n        uint256 percentAdvanceForTrader, // will be divided by hundred when used\n        string memory commodity,\n        uint256 quantity,\n        Unit unit\n    )\n        external\n        onlyBuyer\n        notNegative(percentAdvanceForTrader)\n        greaterThanZero(amountToTrader)\n    {\n        Order memory order = Order(\n            address(0),\n            trader,\n            msg.sender,\n            amountToTrader,\n            0,\n            0,\n            \"\",\n            \"\",\n            percentAdvanceForTrader,\n            0,\n            State.Created,\n            \"\",\n            commodity,\n            quantity,\n            0,\n            address(0),\n            unit\n        );\n        hashToOrder[hash] = order;\n        buyersToHashes[msg.sender].push(hash);\n        buyerHashesToIndexes[hash] = buyersToHashes[msg.sender].length - 1;\n        tradersToHashes[trader].push(hash);\n        traderHashesToIndexes[hash] = tradersToHashes[trader].length - 1;\n    }\n\n    function acceptOrderTrader(bytes32 hash) external onlyBuyer {\n        Order storage order = hashToOrder[hash];\n        require(\n            order.state == State.RevertedTraderToBuyer ||\n                order.state == State.ConfirmedTraderToBuyer\n        );\n        order.state = State.AcceptedTrader;\n        // Transaction logic for when there is advance payment handled in javascript\n    }\n\n    function rejectOrderBuyerOrTrader(\n        bytes32 hash,\n        address buyer,\n        address trader\n    ) external onlyBuyerOrTrader {\n        Order storage order = hashToOrder[hash];\n        require(\n            order.state == State.Created ||\n                order.state == State.RevertedTraderToBuyer ||\n                order.state == State.RevertedBuyerToTrader\n        );\n        delete hashToOrder[hash];\n        delete buyersToHashes[buyer][buyerHashesToIndexes[hash]];\n        delete tradersToHashes[trader][traderHashesToIndexes[hash]];\n    }\n\n    function revertOrderBuyerOrTrader(\n        bytes32 hash,\n        uint256 amountToTrader,\n        uint256 percentAdvanceForTrader\n    )\n        external\n        onlyBuyerOrTrader\n        notNegative(percentAdvanceForTrader)\n        greaterThanZero(amountToTrader)\n    {\n        Order storage order = hashToOrder[hash];\n        require(\n            order.state == State.Created ||\n                order.state == State.RevertedBuyerToTrader ||\n                order.state == State.RevertedTraderToBuyer\n        );\n        order.amountToTrader = amountToTrader;\n        order.percentAdvanceForTrader = percentAdvanceForTrader;\n        order.state = order.state == State.RevertedBuyerToTrader ||\n            order.state == State.Created\n            ? State.RevertedTraderToBuyer\n            : State.RevertedBuyerToTrader;\n    }\n\n    function confirmOrderTraderToBuyer(bytes32 hash) external onlyTrader {\n        Order storage order = hashToOrder[hash];\n        require(\n            order.state == State.Created ||\n                order.state == State.RevertedBuyerToTrader\n        );\n        order.state = State.ConfirmedTraderToBuyer;\n    }\n\n    function getCommodityAndQuantity(bytes32 hash)\n        external\n        view\n        onlyUser\n        returns (\n            string memory,\n            uint256,\n            uint256,\n            Unit\n        )\n    {\n        return (\n            hashToOrder[hash].commodity,\n            hashToOrder[hash].quantity,\n            hashToOrder[hash].finalQuantity,\n            hashToOrder[hash].unit\n        );\n    }\n\n    function addSupplierToOrder(\n        address supplier,\n        uint256 amountToSupplier,\n        uint256 percentAdvanceForSupplier,\n        bytes32 hash\n    )\n        external\n        onlyTrader\n        notNegative(percentAdvanceForSupplier)\n        greaterThanZero(amountToSupplier)\n    {\n        Order storage order = hashToOrder[hash];\n        require(\n            order.state == State.AcceptedTrader ||\n                order.state == State.RejectedSupplier\n        );\n        order.amountToSupplier = amountToSupplier;\n        order.percentAdvanceForSupplier = percentAdvanceForSupplier;\n        order.supplier = supplier;\n        suppliersToHashes[supplier].push(hash);\n        supplierHashesToIndexes[hash] = suppliersToHashes[supplier].length - 1;\n        order.state = State.FoundSupplier;\n    }\n\n    function acceptOrderSupplier(bytes32 hash) external onlyTrader {\n        Order storage order = hashToOrder[hash];\n        require(\n            order.state == State.RevertedSupplierToTrader ||\n                order.state == State.ConfirmedSupplierToTrader\n        );\n        order.state = State.AcceptedSupplier;\n        // Transaction logic for when there is advance payment handled in javascript\n        // calculate total amount with amount per unit * quantity\n    }\n\n    function rejectOrderSupplierOrTrader(bytes32 hash, address supplier)\n        external\n        onlySupplierOrTrader\n    {\n        Order storage order = hashToOrder[hash];\n        require(\n            order.state == State.FoundSupplier ||\n                order.state == State.RevertedTraderToSupplier ||\n                order.state == State.RevertedSupplierToTrader\n        );\n        order.state = State.RejectedSupplier;\n        delete suppliersToHashes[supplier][supplierHashesToIndexes[hash]];\n    }\n\n    function revertOrderSupplierOrTrader(\n        bytes32 hash,\n        uint256 amountToSupplier,\n        uint256 percentAdvanceForSupplier\n    )\n        external\n        onlySupplierOrTrader\n        notNegative(percentAdvanceForSupplier)\n        greaterThanZero(amountToSupplier)\n    {\n        Order storage order = hashToOrder[hash];\n        require(\n            order.state == State.FoundSupplier ||\n                order.state == State.RevertedSupplierToTrader ||\n                order.state == State.RevertedTraderToSupplier\n        );\n        order.amountToSupplier = amountToSupplier;\n        order.percentAdvanceForSupplier = percentAdvanceForSupplier;\n        order.state = order.state == State.RevertedTraderToSupplier ||\n            order.state == State.FoundSupplier\n            ? State.RevertedSupplierToTrader\n            : State.RevertedTraderToSupplier;\n    }\n\n    function confirmOrderSupplierToTrader(bytes32 hash) external onlySupplier {\n        Order storage order = hashToOrder[hash];\n        require(\n            order.state == State.FoundSupplier ||\n                order.state == State.RevertedTraderToSupplier\n        );\n        order.state = State.ConfirmedSupplierToTrader;\n    }\n\n    function getAmountToTrader(bytes32 hash)\n        external\n        view\n        onlyBuyerOrTrader\n        returns (uint256)\n    {\n        return hashToOrder[hash].amountToTrader;\n    }\n\n    function getAmountToSupplier(bytes32 hash)\n        external\n        view\n        onlySupplierOrTrader\n        returns (uint256)\n    {\n        return hashToOrder[hash].amountToSupplier;\n    }\n\n    function getAmountToShippingLine(bytes32 hash)\n        external\n        view\n        onlySupplierOrShippingLine\n        returns (uint256)\n    {\n        return hashToOrder[hash].amountToShippingLine;\n    }\n\n    function getSupplier(bytes32 hash)\n        external\n        view\n        onlyTraderOrShippingLine\n        returns (address)\n    {\n        return hashToOrder[hash].supplier;\n    }\n\n    function getBuyer(bytes32 hash)\n        external\n        view\n        canGetBuyer\n        returns (address)\n    {\n        return hashToOrder[hash].buyer;\n    }\n\n    function getTrader(bytes32 hash) external view onlyUser returns (address) {\n        return hashToOrder[hash].trader;\n    }\n\n    function getShippingLine(bytes32 hash)\n        external\n        view\n        onlySupplier\n        returns (address)\n    {\n        return hashToOrder[hash].shippingLine;\n    }\n\n    function getAdvancePercentForTrader(bytes32 hash)\n        external\n        view\n        onlyBuyerOrTrader\n        returns (uint256)\n    {\n        return hashToOrder[hash].percentAdvanceForTrader;\n    }\n\n    function getAdvancePercentForSupplier(bytes32 hash)\n        external\n        view\n        onlySupplierOrTrader\n        returns (uint256)\n    {\n        return hashToOrder[hash].percentAdvanceForSupplier;\n    }\n\n    function updateStateBySupplier(bytes32 hash, bytes32 update)\n        external\n        onlySupplier\n    {\n        Order storage order = hashToOrder[hash];\n        require(order.state >= State.AcceptedSupplier);\n        if (update == keccak256(bytes(\"MaterialSourced\"))) {\n            order.state = State.MaterialSourced;\n        } else if (update == keccak256(bytes(\"InFactory\"))) {\n            order.state = State.InFactory;\n        } else if (update == keccak256(bytes(\"QualityControl\"))) {\n            require(\n                order.state != State.MaterialSourced &&\n                    order.state != State.AcceptedSupplier\n            );\n            order.state = State.QualityControl;\n        }\n    }\n\n    function updateStateByBuyer(bytes32 hash, bytes32 update)\n        external\n        onlyBuyer\n    {\n        Order storage order = hashToOrder[hash];\n        if (update == keccak256(bytes(\"DocumentsVerifiedByBuyer\"))) {\n            require(order.state == State.DocumentsUpdatedByTrader);\n            order.state = State.DocumentsVerifiedByBuyer;\n        } else if (update == keccak256(bytes(\"Closed\"))) {\n            require(order.state == State.DocumentsVerifiedByBuyer);\n            order.state = State.Closed;\n        }\n    }\n\n    function updateStateByTrader(bytes32 hash, bytes32 update)\n        external\n        onlyTrader\n    {\n        // should only be able to set state as DocumentsVerifiedByTrader\n        if (update == keccak256(bytes(\"DocumentsVerifiedByTrader\"))) {\n            Order storage order = hashToOrder[hash];\n            require(order.state == State.Shipped);\n            order.state = State.DocumentsVerifiedByTrader;\n        }\n    }\n\n    function getState(bytes32 hash) external view onlyUser returns (State) {\n        return hashToOrder[hash].state;\n    }\n\n    function uploadBL(bytes32 hash, string memory BL)\n        external\n        onlyShippingLine\n    {\n        Order storage order = hashToOrder[hash];\n        require(order.state == State.AcceptedShippingLine);\n        order.BL = BL;\n        order.state = State.BlUploaded;\n    }\n\n    function ship(bytes32 hash) external onlyShippingLine {\n        require(hashToOrder[hash].state == State.BlUploaded);\n        hashToOrder[hash].state = State.Shipped;\n        // after this point, in JS there is a transaction between supplier and shipping line: supplier -> shipping line\n    }\n\n    function onProductionComplete(\n        string memory PL,\n        string memory invoice,\n        uint256 finalQuantity,\n        bytes32 hash\n    ) external onlySupplier {\n        Order storage order = hashToOrder[hash];\n        require(order.state == State.QualityControl);\n        order.state = State.ProductionCompleted;\n        order.PL = PL;\n        order.invoice = invoice;\n        // check for final quantity validity in JS\n        order.finalQuantity = finalQuantity;\n    }\n\n    function getDocumentsFromSupplier(bytes32 hash)\n        external\n        view\n        onlyShippingLine\n        returns (\n            string memory,\n            string memory,\n            string memory\n        )\n    {\n        Order storage order = hashToOrder[hash];\n        require(order.state == State.AcceptedShippingLine);\n        return (order.PL, order.BL, order.invoice);\n        // calculate total amount with amount per unit * quantity - advance payment\n    }\n\n    function getDocumentsFromShippingLine(bytes32 hash)\n        external\n        view\n        onlyTrader\n        returns (\n            string memory,\n            string memory,\n            string memory\n        )\n    {\n        Order storage order = hashToOrder[hash];\n        require(order.state >= State.Shipped);\n        return (order.PL, order.BL, order.invoice);\n    }\n\n    function updateDocumentsFromSupplier(\n        string memory invoice,\n        string memory PL,\n        string memory BL,\n        bytes32 hash\n    ) external onlyTrader {\n        // FOLLOWING FUNCTIONALITY HAPPENS AFTER TRADER VERIFIES DOCUMENTS\n        // in JS state is set to DocumentsVerifiedByTrader\n        // Transaction logic handled in javascript: trader to supplier\n        Order storage order = hashToOrder[hash];\n        require(order.state == State.DocumentsVerifiedByTrader);\n        order.invoice = invoice;\n        order.PL = PL;\n        order.BL = BL;\n        order.state = State.DocumentsUpdatedByTrader;\n    }\n\n    function getDocumentsFromTrader(bytes32 hash)\n        external\n        view\n        onlyBuyer\n        returns (\n            string memory,\n            string memory,\n            string memory\n        )\n    {\n        // At this point, in Javascript, Supplier has set the state to be \"Shipped\".\n        Order memory order = hashToOrder[hash];\n        require(order.state >= State.DocumentsUpdatedByTrader);\n        return (order.PL, order.BL, order.invoice);\n        // FOLLOWING FUNCTIONALITY HAPPENS AFTER BUYERS VERIFIES DOCUMENTS\n        // when buyer verifies documents, state is set to DocumentsReceivedByBuyer\n        // Transaction logic(of sending money to trader) handled in javascript: buyer to trader\n        // after that, state is set to closed.\n        // calculate total amount with amount per unit * quantity - advance payment\n    }\n\n    function getHashesForBuyer()\n        external\n        view\n        onlyBuyer\n        returns (bytes32[] memory)\n    {\n        return buyersToHashes[msg.sender];\n    }\n\n    function getHashesForSupplier()\n        external\n        view\n        onlySupplier\n        returns (bytes32[] memory)\n    {\n        return suppliersToHashes[msg.sender];\n    }\n\n    function getHashesForTrader()\n        external\n        view\n        onlyTrader\n        returns (bytes32[] memory)\n    {\n        return tradersToHashes[msg.sender];\n    }\n\n    function getHashesForShippingLine()\n        external\n        view\n        onlyShippingLine\n        returns (bytes32[] memory)\n    {\n        return shippingLinesToHashes[msg.sender];\n    }\n\n    function addShippingLineToOrder(address shippingLine, bytes32 hash)\n        external\n        onlySupplier\n    {\n        Order storage order = hashToOrder[hash];\n        require(\n            order.state == State.ProductionCompleted ||\n                order.state == State.RejectedShippingLine\n        );\n        order.shippingLine = shippingLine;\n        shippingLinesToHashes[shippingLine].push(hash);\n        shippingLinesHashesToIndexes[hash] =\n            shippingLinesToHashes[shippingLine].length -\n            1;\n        order.state = State.FoundShippingLine;\n    }\n\n    function acceptOrderShippingLine(bytes32 hash) external onlySupplier {\n        Order storage order = hashToOrder[hash];\n        require(\n            order.state == State.RevertedShippingLineToSupplier ||\n                order.state == State.ConfirmedShippingLineToSupplier ||\n                order.state == State.AddedAmountShippingLine\n        );\n        order.state = State.AcceptedShippingLine;\n    }\n\n    function addAmountShippingLine(bytes32 hash, uint256 amountToShippingLine)\n        external\n        onlyShippingLine\n        greaterThanZero(amountToShippingLine)\n    {\n        Order storage order = hashToOrder[hash];\n        require(order.state == State.FoundShippingLine);\n        order.amountToShippingLine = amountToShippingLine;\n        order.state = State.AddedAmountShippingLine;\n    }\n\n    function rejectOrderShippingLine(bytes32 hash, address shippingLine)\n        external\n        onlySupplierOrShippingLine\n    {\n        Order storage order = hashToOrder[hash];\n        require(\n            order.state == State.FoundShippingLine ||\n                order.state == State.RevertedSupplierToShippingLine ||\n                order.state == State.RevertedShippingLineToSupplier ||\n                order.state == State.AddedAmountShippingLine\n        );\n        order.state = State.RejectedShippingLine;\n        // shippingLinesToHashes[shippingLine][\n        //     shippingLinesHashesToIndexes[hash]\n        // ] = shippingLinesToHashes[shippingLine][\n        //     shippingLinesToHashes[shippingLine].length - 1\n        // ];\n        // shippingLinesToHashes[shippingLine].pop();\n        delete shippingLinesToHashes[shippingLine][\n            shippingLinesHashesToIndexes[hash]\n        ];\n    }\n\n    function revertOrderShippingLine(bytes32 hash, uint256 amountToShippingLine)\n        external\n        onlySupplierOrShippingLine\n        greaterThanZero(amountToShippingLine)\n    {\n        Order storage order = hashToOrder[hash];\n        require(\n            order.state == State.RevertedSupplierToShippingLine ||\n                order.state == State.RevertedShippingLineToSupplier ||\n                order.state == State.AddedAmountShippingLine\n        );\n        order.amountToShippingLine = amountToShippingLine;\n        order.state = (order.state == State.RevertedSupplierToShippingLine)\n            ? State.RevertedShippingLineToSupplier\n            : State.RevertedSupplierToShippingLine;\n    }\n\n    function confirmOrderShippingLineToSupplier(bytes32 hash)\n        external\n        onlyShippingLine\n    {\n        Order storage order = hashToOrder[hash];\n        require(order.state == State.RevertedSupplierToShippingLine);\n        order.state = State.ConfirmedShippingLineToSupplier;\n    }\n}\n",
  "sourcePath": "/home/aadivyaraushan/Documents/GitHub/supply-chain-blockchain/truffle/contracts/SupplyChain.sol",
  "compiler": {
    "name": "solc",
    "version": "0.8.14+commit.80d49f37.Emscripten.clang"
  },
  "schemaVersion": "3.4.8",
  "updatedAt": "2022-08-21T14:32:39.258Z",
  "networkType": "ethereum",
  "devdoc": {
    "kind": "dev",
    "methods": {},
    "version": 1
  },
  "userdoc": {
    "kind": "user",
    "methods": {},
    "version": 1
  }
}